:0200000460009A
:10000000464346420004015600000000010303007D
:1000100000000000000000000000000000000000E0
:1000200000000000000000000000000000000000D0
:1000300000000000000000000000000000000000C0
:1000400000000000000406000000000000000000A6
:100050000000800000000000000000000000000020
:100060000000000000000000000000000000000090
:100070000000000000000000000000000000000080
:10008000EB04180A063204260000000000000000FD
:100090000000000000000000000000000000000060
:1000A0000000000000000000000000000000000050
:1000B0000000000000000000000000000000000040
:1000C0000000000000000000000000000000000030
:1000D0000000000000000000000000000000000020
:1000E0000000000000000000000000000000000010
:1000F0000000000000000000000000000000000000
:1001000000000000000000000000000000000000EF
:1001100000000000000000000000000000000000DF
:1001200000000000000000000000000000000000CF
:1001300000000000000000000000000000000000BF
:1001400000000000000000000000000000000000AF
:10015000000000000000000000000000000000009F
:10016000000000000000000000000000000000008F
:10017000000000000000000000000000000000007F
:10018000000000000000000000000000000000006F
:10019000000000000000000000000000000000005F
:1001A000000000000000000000000000000000004F
:1001B000000000000000000000000000000000003F
:1001C000000100000010000000000000000000001E
:1001D000000004000000000000000000000000001B
:1001E000000000000000000000000000000000000F
:1001F00000000000000000000000000000000000FF
:1002000000000000000000000000000000000000EE
:1002100000000000000000000000000000000000DE
:10100000D10020410020006000000000000000002E
:1010100020100060001000600000000000000000D0
:1010200000000060D875020000000000FFFFFFFF15
:1010300000000000000000000000000000000000B0
:1010400000000000000000000000000000000000A0
:101050000000000000000000000000000000000090
:101060000000000000000000000000000000000080
:1020000000542920F5A000602D960160D9A0006041
:10201000D9A00060D9A00060D9A000600000000035
:1020200000000000000000000000000035A2006079
:10203000D9A000600000000091A1006039F90060A3
:1020400019A5006019A5006019A5006019A5006018
:1020500019A5006019A5006019A5006019A5006008
:1020600019A5006019A5006019A5006019A50060F8
:1020700019A5006019A5006019A5006019A50060E8
:1022C0007BB972B90029BEBF00204FF0004106E083
:1022D00008BF00281CBF6FF000414FF0FF3000F036
:1022E00057B8ADF1080C6DE904CE002909DB002BCD
:1022F0001ADB00F069F8DDF804E0DDE9022304B040
:102300007047404261EB4101002B1BDB00F05CF8A1
:10231000DDF804E0DDE9022304B0404261EB410155
:10232000524263EB43037047524263EB430300F0B6
:102330004BF8DDF804E0DDE9022304B0404261EB34
:1023400041017047524263EB430300F03DF8DDF872
:1023500004E0DDE9022304B0524263EB430370471B
:1023600053B94AB9002908BF00281CBF4FF0FF31FC
:102370004FF0FF3000F00CB8ADF1080C6DE904CE61
:1023800000F022F8DDF804E0DDE9022304B0704734
:10239000704700BF10F8012B11F8013B012A28BF3C
:1023A0009A42F7D0D01A7047034611F8012B03F870
:1023B000012B002AF9D17047034613F8012B002A9C
:1023C000FBD1181A013870472DE9F04786468C4634
:1023D0000846089E154674461946002B40F0C280F8
:1023E0008542B2FA82F245D94AB1C2F1200300FA1D
:1023F00002FC2EFA03F3954043EA0C0C94404FEA9A
:10240000154EA8B2BCFBFEF8230C0EFB18CC08FB43
:1024100000F943EA0C43994528D9EB1808F1FF3736
:1024200004D2994502D9A8F102072B44A3EB090372
:10243000A4B2B3FBFEFC0EFB1C330CFB00F044EA21
:102440000344A04214D92C190CF1FF3304D2A0424A
:1024500002D9ACF102032C44241A43EA07401EB10E
:10246000D440002334607360BDE8F0874746DDE761
:102470006346F1E792BB431B01214FEA154EAFB211
:10248000B3FBFEFC200C0EFB1C330CFB07F840EAF0
:102490000343984562D9EB180CF1FF3004D29845FC
:1024A00002D9ACF102002B44A3EB0803A4B2B3FBA6
:1024B000FEFC0EFB1C330CFB07F744EA0344A74267
:1024C0004ED92C190CF1FF3304D2A74202D9ACF13A
:1024D00002032C44E41B43EA0040C0E7C2F120039E
:1024E00020FA03F1954090402EFA03F303434FEA9C
:1024F000154EAFB2B1FBFEFC0EFB1C10190C0CFB11
:1025000007F841EA0041884504FA02F422D9691823
:102510000CF1FF3004D2884502D9ACF10200294405
:10252000A1EB08019BB2B1FBFEFC0EFB1C110CFBE6
:1025300007F743EA01439F420ED9EB180CF1FF3134
:1025400004D29F4202D9ACF102012B44DB1B41EAC9
:10255000004192E76046E3E76146F7E76046A3E79C
:102560006346B7E7834206D916B9002108467BE7E0
:10257000C6E900E0F9E7B3FA83F78FB9834201D3E4
:10258000724508D8BEEB020460EB030301209C46B1
:102590001EB9002168E73846FAE7C6E9004CF8E7BB
:1025A000C7F1200CBB4022FA0CF41C432EFA0CF1AC
:1025B00020FA0CF3B84001434FEA14490EFA07F52C
:1025C000B3FBF9F81FFA84FE09FB18300B0C08FB6B
:1025D0000EFA43EA00439A4502FA07F240D9E3189B
:1025E00008F1FF3004D29A4502D9A8F10200234431
:1025F000A3EB0A0389B2B3FBF9F809FB183308FB14
:102600000EFE41EA03418E452CD9611808F1FF33D3
:1026100004D28E4502D9A8F10203214443EA0040C6
:10262000A0FB0298A1EB0E014145CE46434602D3E2
:1026300006D14D4504D2B9EB020E68EB0403013814
:10264000002EA6D0B5EB0E0261EB030101FA0CFCE3
:1026500022FA07F34CEA0303F940C6E9003198E790
:102660004046C5E74346D9E72DE9F047044688B020
:10267000884617461CF0DCFD0A220023FFF770FE97
:10268000B8F1010F06460D4607D102460B4620461B
:10269000274915F08CFF002011E07F682548394656
:1026A000FFF778FE70B139462348FFF773FE48B153
:1026B00020463A46214915F096FF6FF0040008B015
:1026C000BDE8F0873046294617A3D3E90023FFF77A
:1026D000F7FD06460D4610461946194A0023FFF736
:1026E000EFFD80460F46104619464EF66022002345
:1026F000FFF7E6FD82468946104619464FF47A7286
:102700000023FFF7DDFDCDE902A9CDE90623CDE9E0
:10271000040132462B460B492046CDE9008715F0CF
:1027200046FFB8E7AFF30080005C2605000000001C
:10273000E440026065310260F5400260FE400260E4
:1027400080EE3600164102602DE9F04F2DED028B30
:10275000ADB00E46D0F804A000210DF1680909AC17
:10276000D0F8108007461546484624221CF064FF26
:102770001422002120461CF05FFFF36901933368A7
:102780002BB94FF6FF71DAF800001BF0D5FCB369E6
:10279000326803F00F0370681A928DF87130336A53
:1027A0001B90591CCDF818901BBF23EAE3730A2134
:1027B000194683FB0131CDE91031002D7AD06B68C9
:1027C000192A0A93AB680B9310D8052A12D9063A36
:1027D000132A0FD8DFE802F0670E670E0E0E0E0EFA
:1027E000670E0E5B5F0E0E0E670E1115332A5AD060
:1027F000352A5BD06FF0850495E001238DF82430F5
:1028000007E098F87B30062B4FF00103F6D18DF8E6
:1028100025302B690D936B690594581C4ED023EA23
:10282000E3730A2283FB023208F18009CDE91232F8
:1028300005AB0E93DDE91023484610F045FD044634
:10284000002840F0B28041F2883B9FED598B019BFC
:10285000002B06DB0EA9384619F0C0F8044678BBF9
:1028600000244846083610F0A7FD21AF1DAA1346E4
:10287000083603CBBB4246F8080C46F8041C1A463F
:10288000F5D1002D4FD0D8F85430EB604BE0012348
:102890008DF8243007E098F87B30062B4FF00103C9
:1028A000F6D18DF825302B690C93B4E700282B69FD
:1028B000FADAAFE72B462A460595B5E71A46B3E79D
:1028C000002D40D0DAF80020002124A8936B23F0DB
:1028D0008B5323F4F81323F033039363364ADAF867
:1028E00000301A6320221CF0A7FE0C2314A93846DE
:1028F000239303238DF8943002238DF8953023AB76
:1029000008930023079307AB8DED168B14938DED81
:10291000188B19F063F8BBF1000F0ADC6FF0730439
:10292000484610F049FD20462DB0BDEC028BBDE8B5
:10293000F08F384618F01BFF28B17D20ABF17D0BDE
:102940001CF0D3F8E7E714F10B0F12D198F87B30A5
:102950005A1F012A02D9093B012B0AD8384619F01F
:1029600083F8044600283FF47BAF484610F024FD6E
:10297000D9E77B681868426AD107029206D56422BB
:102980004FF0007103931BF05CFB039B1868029BE4
:102990009A0702D4436D1B0703D0642202211BF067
:1029A00050FB019B013B019351E76FF00F04BAE725
:1029B00050C300000000000033007F110000000041
:1029C0002DE9F84F2DED028B81468846002219F83B
:1029D0000230202B02F1010100F0A381A3F10900D4
:1029E000042840F29E812B2B0D4633D02D2B36D060
:1029F0001846042440F02003692B32D06E2B61D09E
:102A000000224FF00A0A964694461346114614F4E3
:102A100000666CD040F02007A7F1610BBBF1050FF9
:102A200065D8573FFFB2BA4540F3F58044F08006C1
:102A3000E005B6B269D5F40506F400707AD5002F2A
:102A400018BF4CF0010C00B9013219F805003446EA
:102A50000135DCE7042419F80100951CCAE7442479
:102A6000F9E79FEDB18BB64B13F8011B51B119F883
:102A7000052042F020028A4205F1010026D0B14A29
:102A8000934230D1B4EE488BF1EE10FA0AD019F827
:102A90000530282B06D1013519F80530292B05F111
:102AA000010515D1630601D5B1EE488BB8F1000FD1
:102AB00002D04D44C8F80050B0EE480BBDEC028B7C
:102AC000BDE8F88F9FED9A8B9F4BCDE70546CBE78E
:102AD00023F02002413A192ADED9A3F13002092A53
:102AE000DAD95F2BD8D09FED948B0025DEE7A0F1DB
:102AF0003007FFB257452DDA44F0800614F4807099
:102B0000B6B298D1BAF10A0F06D0BEF10F0F92DD1E
:102B100044F4C076B6B28EE7BEF1100F8BDD44F4FC
:102B2000C076042FB6B286D9052F08BF07464FF0EE
:102B3000020C80E700B1013AAAFB0334FB180AFB40
:102B4000014444F1000153EA01003FF47EAF0EF16D
:102B5000010E7AE7FE2F5ED1A70558D52006C2D513
:102B6000002E40F09B8053EA010005F1FF3500F094
:102B7000D580200540F1B6803632B1F5800FC0F027
:102B80009680724FB1F5000F80F09580BA42C0F286
:102B900092804CEA030303F00306032E084604D098
:102BA00003F00606062E40F08F80043341F100004A
:102BB000B0F5000FC0F088800132B2F5806F80F26E
:102BC000AA8000234FF4801102F2FF3221F4801119
:102BD0001E4641EA025747EC186BB0EE480B13F063
:102BE000EBFA0138022804D81CF086FF584B222249
:102BF0001A50B0EE480B13F0DFFA013802283FF606
:102C000051AF1CF079FF524B22221A504AE744F48C
:102C10000076B6B219E740F02000782804F080076B
:102C200009D147B153EA010A05D144F40066B6B2AE
:102C30004FF0100A09E7002F3FF455AF86B392001A
:102C4000702686428FD119F805002B2805F1010660
:102C500004D02D2826D144F48064A4B219F80600CB
:102C6000A0F13006092E3FF67EAFAE1C354640F28D
:102C7000D34A00264FF00A0B5645DCBF30380BFB19
:102C8000060619F80500A0F13007092F05F1010526
:102C9000F2D9670548BF7642324464E72E20CEE77A
:102CA0006526CEE7A0F13007092FDFD95BE7DB18F7
:102CB0004941013A61E75E0846EAC17603F0010343
:102CC0003343490801325DE7B2F5806F23DA9B0890
:102CD000B0F5800F43EA80734FEA9001BFF474AF00
:102CE000002275E70EEB020010F5A27F10DDB0F5B3
:102CF0009B7F10DA03F0010040EA0C0001308008ED
:102D0000181841F1000100F027F8B0EE408B70E791
:102D10009FED098B6DE79FED048B6AE79FED068BB6
:102D2000C0E60A4653E600BF000000000000F07F46
:102D3000000000000000F87F00000000000000001C
:102D4000E96C0260EC6C0260E66C026002FCFFFF62
:102D50000C000000000000002DE9FF4780461646E9
:102D60000F46002900F0A280B1FA81F4341B002E36
:102D700004F10A04C0F2A280304612F077FE044447
:102D8000304612F079FEA4EB060905466946304646
:102D900012F09AFEA9EB05037D336A464046394698
:102DA0001CF0E2FCA64282460D4600F38380B9F196
:102DB0003F0F00F381804FF0FF33A9F1200003FAA9
:102DC00000F003FA09F2C9F12001024323FA01F1EC
:102DD0000A4303FA09F328EA030327EA020213432A
:102DE0000CBF01200020002D00F08A80B5FA85F389
:102DF000E31A03F23E4340F2FE72934200F38980ED
:102E0000002B23EAE376CCBF32460122121BA2F24A
:102E10003341C1F1200CA2F23447A2F253442AFA02
:102E200001F305FA0CFC43EA0C0325FA04F4C7F19C
:102E3000200EA2F2544C234305FA0EFE2AFA07F4A0
:102E400025FA0CFC44EA0E0444EA0C0414F0010FC9
:102E500025FA01F1C7F1200CA2F2544254D0A8B1D6
:102E60004FF0FF3000FA02F200FA07F4144320FAA0
:102E70000CF2B84014432AEA000A03F0010225EAE2
:102E800004054AEA020A5AEA050A3DD0013341F133
:102E90000002C2F3130253EA020138D0184642EA94
:102EA000065141EC100B04B0BDE8F087B0FA80F495
:102EB00020345BE7012096E7002094E7C6F1000983
:102EC000484612F0D9FD241A484612F0D5FDA61B3B
:102ED0000546694648462E4412F06AFE06F17C0318
:102EE0006A46404639461CF03FFC82460D46404645
:102EF000394612F0D1FD81458CBF0020012072E7D8
:102F0000BAFA8AF3203373E7C1F31302C6E7013636
:102F1000C4E79FED010BC6E7000000000000F07F52
:102F2000F8B510EE903A33F000472DED028B10EE1D
:102F3000102A0DD182F48002520012F5000F40F2E7
:102F4000168270EE207ABDEC028BB0EE670AF8BDF7
:102F500022F00040B0F1FF4F02D8B7F1FF4F08D97F
:102F6000B2F17E5FEDD183F480035B0013F5000FB7
:102F7000E5E7002A06462DDAB7F1974F0CD3B7F1F3
:102F8000FF4F2AD00221B3F17C5F3ED1002AC0F26C
:102F90008C80F1EEC07AD6E7B7F17E5F2ED3FC15B8
:102FA000C4F1960447FA04F101FA04F4BC423AD1A0
:102FB000B7F17E5F47D1002B80F2DF81B5EE400A8A
:102FC000F1EE10FA4DD1D00FBDEC028BBDE8F84008
:102FD00013F07AB9B7F1FF4F3AD1B0F17E5F00F04C
:102FE000C68105D9DFEDCC7A002B60FEA77AAAE76F
:102FF000002B80F2BF81F1EE607AA4E7B3F1804F3D
:1030000034D0B3F17C5F5CD0002122F04044B4F1B5
:103010007E5FF0EEC07A3FD1002BBCBFB7EE007AE6
:10302000C7EE277A29E0B7F17E5FC4D00021B3F163
:10303000804FEAD1B0F1BF4F1AD2B0F1D05F29D999
:1030400060EE007A7FE701F00101C1F10201EEE7D5
:10305000B7F17E5FAFD0B3F1804F4FF00001E9D000
:1030600091E7B7EE007AC7EE007A6CE70021E1E75E
:10307000B0F1FF4FF0EEC07A34D1002ABFF663AF53
:10308000A0F17E50084316D1BDEC028BBDE8F8409C
:1030900013F028B9F0EEC07A20BB002B1EDA002A0C
:1030A00092DA4B1E584258418EE7B0F1FF4FF0EED6
:1030B000C07A40F0658101297FF445AFF1EE677A6F
:1030C00041E7B0F1FF4FF0EEC07A3FF43CAFB0F112
:1030D0007E5FD9D000283FF436AFD5E7012940FE06
:1030E000277A30E7D50F013D51EA0504CCD0B7F17E
:1030F0009A4F40F25181894A904208D8002B0BDA4E
:103100000020BDEC028BBDE8F84013F0CFB8844A34
:10311000904208D9002BF3DC0020BDEC028BBDE807
:10312000F84013F0B5B89FED7A5BB7EE007A77EE12
:10313000C77AB7EEC55BB5EE007A07EEC75AB6EEB2
:10314000007A05EE677A27EEA76ADFED766A27EE4A
:10315000067A9FED756A27EE067A9FED746A17EE80
:10316000867A67EEA66A76EE877A17EE902A22F4C0
:103170007F6222F00F0207EE902A77EEE66A77EE82
:10318000667A23F47F6323F00F030139B7EE007AE8
:10319000BFEE008A294308FE078A07EE103A30EE98
:1031A000C77A67EEA00A07EE902A47EE270A07EED5
:1031B000103A67EE877A30EEA77A17EE101A0029D8
:1031C00021F000431ADDB3F1864F09D9B5EEC08A6C
:1031D000F1EE10FA4CBF0120002092E70126FCE03E
:1031E00020D1DFED536A37EE677A70EEA66AF4EE0F
:1031F000C76AF1EE10FAE9DC862318E04D4A9342E3
:1032000007D9B5EEC08AF1EE10FA4CBF01200020BC
:1032100083E707D137EE677AB4EEE07AF1EE10FA81
:10322000EADBEEE7B3F17C5F40F29C80DB157E3B8E
:103230004FF4000018410844C0F3C7533E4A7F3B97
:103240001A41024007EE102AC0F3160040F40000B5
:10325000C3F117031841002977EEC77AB8BF40427F
:1032600037EEA07ADFED356ADFED355A9FED356A2E
:1032700017EE103A23F47F6323F00F0307EE103AA2
:1032800077EE677A67EE266A70EEE70ADFED2E7A50
:1032900067EE277A9FED2D7A40EE877AB7EE000A27
:1032A00036EEA77A77EE666A77EEE67A67EE076A19
:1032B00047EE277A16EEA56ADFED255A46EE265A26
:1032C0009FED246A15EEA66ADFED235A46EE265AD4
:1032D000B0EE476A05EEE66AF0EE006A67EE065A5F
:1032E00036EE666AC5EE866A76EEE77A77EEC77ADC
:1032F00030EE670A10EE103A03EBC053B3F5000F3F
:1033000032DA12F07FFF60EE087A1CE6AFF300803D
:10331000E13D55555555D53F00000000F3FF7F3F77
:103320000700803F00AAB83F3BAAB83F70A5EC3623
:103330003CAA383300001643000080FF0072313F82
:103340004CBB31330EEADD358CBEBF351872313FD0
:1033500055B38A38610B363BABAA2A3E0000000009
:103360000000804B00207BE700EE103ACBE7F7EE41
:10337000007AE8E55FED077AE5E5F0EE407AE2E510
:10338000B0F17E5F3FF47CAE00283FF4A7AE002989
:103390003FF47AAE0221002512F0FF4F08BF1FED67
:1033A000107A5E4C02BF67EE877A6FF0170217EE55
:1033B000906A4FEAE65018BF00227F381044C6F3E7
:1033C0001602A24242F07E5706DD554CA2427FF71C
:1033D00005AF0130A7F500070026524A02EB86022E
:1033E000D2ED005A504A06EE107A75EE867AF7EE64
:1033F000006AC6EEA74A36EE657A27EE245A15EE25
:10340000104A144006EE904A484C04EA670444F01F
:10341000005404F5800404EB465407EE904A06EE8F
:10342000E77A77EEE57ADFED425A36EE676A65EEC7
:10343000057A06EE667A9FED3F6A47EE865A9FED63
:103440003E6A05EEA76ADFED3D5A46EE275A9FED2C
:103450003C6A05EEA76ADFED3B5A46EE275A27EE97
:10346000247A36EE856A67EEA77A26EE076A05EEBD
:10347000A76A66EEA64AF0EE085A74EEA57A77EED1
:10348000867A17EE904A144007EE904A77EEE55A96
:1034900027EE277A75EEE45A66EEA76A36EE656A7D
:1034A00006EE057A9FED286A76EE877A17EE904A47
:1034B000144007EE904A77EEE66A27EE866A37EE0A
:1034C000667ADFED226A224C67EEA67ADFED216A8A
:1034D00047EE267A04EB860494ED007A77EE877A3D
:1034E00007EE100A1C4800EB8600D0ED005A76EE7D
:1034F000276AB8EEC77A76EEA56A76EE876A16EE88
:10350000900A024006EE902A36EEC77A37EE657AC8
:1035100037EE467A77EEC77A33E600BF71C41C00F7
:10352000D6B35D00A428026000F0FFFF00F0FFDFCB
:1035300055326C3E42F1533E05A38B3EABAAAA3EE8
:10354000B76DDB3E9A99193F0040763FC623F6B827
:10355000942802604F38763F9C28026037B50446B5
:1035600000F014FF26490546204615F020F84FF4D8
:1035700016722449204615F01AF801F0F1FF22498D
:103580000246204615F013F8AB69204A0A21B3FB26
:10359000F2F2B2FBF1F001FB10221D49204600922D
:1035A0001C4AB3FBF2F36A6815F001F820234FF4CC
:1035B00080721949204614F0FAFF184B1B78CBB1E2
:1035C00017491848D1F82C51174B1849D3E9002353
:1035D000022D08BF01461648920A406842EA83520B
:1035E0009B0ACDE900101349204614F0E0FF0020AB
:1035F00003B030BD1049204614F0D9FFF7E700BFF3
:103600006E3002608030026094300260A08601005B
:10361000A430026040420F00C330026071C828200D
:1036200088AA28206430026020AA2820693002601D
:1036300028AA2820F03002601131026070B51C46C3
:1036400064230E46A0FB030103FB0611234614432B
:1036500004BF01220023FEF783FE0A4903460A2025
:103660000A68B3FBF0F4B2FBF0F2944209D0064AC8
:103670000B60106828B1054A0821BDE8704014F0BD
:1036800089BF70BDE820282080BC28202A31026034
:10369000B14B2DE9F04F2DED028BD5B01B780E46C6
:1036A000904606904BB9AD4914F09DFF6FF01200A3
:1036B00055B0BDEC028BBDE8F08F9FEDA98A0024C8
:1036C0002A230127F0EE488A4FF0800B8DF89040B6
:1036D0000793B7423ED3A34CF0EE480AA24DB0EE9A
:1036E000680A63680CA8A14E9B45D6F81811A8BFBC
:1036F0009B462B6803F1E043CDF824B003EB810235
:10370000CDE900320023079A02F008FB9849069899
:10371000D6F818712D6814F04AFF964B05F1E04574
:103720001B7805EBC708002B78D06368012224A919
:103730009148CDE90083002302F014FC061E71DAE3
:1037400002F004F88D490246069814F04CFF6FF021
:103750001500ADE758F827A0BD00894907F1010918
:103760005046FEF717FE48B94E4529D945446868CA
:103770001BF06DFF834609F10107AAE78149504616
:10378000FEF708FEE0B94E4506D9454468681BF0CF
:103790005BFFF7EEC08BEEE77B495046FEF7FAFD84
:1037A000E8B17A495046FEF7F5FD0146B8B94E45F5
:1037B00015D945440A22686811F000F90790DAE744
:1037C00071495046FEF7E6FD0028EAD14E4506D97C
:1037D000454468681BF038FFB7EEC08BCBE7504616
:1037E000FEF7EAFDA31C05460344BF2B14D834B1F1
:1037F00004F5A873202201346B4403F8C02C24ABD9
:103800002A46514618192C441BF0EEFE002204F5FE
:10381000A8736B4403F8C02CB946ACE7B36D01261E
:1038200045F8373032465A49069814F0C0FEA36D69
:1038300055F837700A93E36DDFF830910B9313F06E
:10384000AEF8002383468A461C46CDE90733099B20
:103850009C4269DB13F0A3F8424BB0EB0B084D48D8
:103860004FF47A7B61EB0A0A84FB0001D3E9165618
:103870000A9BED1A0B9B66EB0306E317099358EAC4
:103880000A0315BF57460027424601223B460A92CB
:10389000FEF766FD8146A5FB0B010A9A3B460BFB32
:1038A0000611AD0AFEF75CFD4FF47A72002345EA7B
:1038B0008655FEF755FD38490746069814F077FE01
:1038C000079B0698B60A0493089B05936423B9FBEB
:1038D000F3F103FB1192CDE9008ACDE902122246F1
:1038E0002E4914F064FE0A226423002C2846B7FBFC
:1038F000F2F2B2FBF3F1B7FBFBF703FB1122099BDA
:10390000314608BF0023039214BF224601220297CA
:10391000FEF726FD2A463346CDE9000106982049E8
:1039200014F045FE0020C3E61E4A082106982346EF
:1039300014F030FE224639460A4801F05DFAA8B379
:1039400001F004FF224603461749069814F04BFE87
:103950006FF00400ACE600BF71C82820303102606F
:103960006666663F28AA282084BC282088AA2820CA
:103970006B31026070C8282088BC28207C3102602E
:103980005F3102606231026065310260683102605D
:1039900088310260A0860100BD310260C231026040
:1039A000FE3102609B310260A13102603CB912F02D
:1039B000F6FFB0EB0B03079361EB0A0308930134A6
:1039C000B44219DA58F82450D9F85C30AB423FF4CD
:1039D00041AF0E4B1B78B3B140232A4639460C4801
:1039E000009314AB13F01BFD14AB0A4A0821069890
:1039F0002F4614F0CFFD2AE7074B0CA8996A02F076
:103A0000A3F90546E0E72B46044AEFE770C82820F3
:103A100088BC28202F44026028AA2820B9310260DF
:103A20002DE9F04F7A4E87B00D467A49044692460A
:103A300014F0BDFD4FF48053774A3046774901F0CA
:103A400091FE60B16FF0150801F080FE74490246E6
:103A5000204614F0C8FD404607B0BDE8F08F71491C
:103A6000204614F0A4FD002D03DDD6F81C31AB4236
:103A700001DAD6F81C512946654813F0C4FAB0F5AE
:103A8000802F81460DD9820A674920464FF4807302
:103A900014F0A9FD6549204614F0A5FD6FF00B0850
:103AA000D9E75E4B1B683BB3614BD3F80080BAF19A
:103AB000000B2946564818BF4FF0010B5A4613F029
:103AC0008AFAD6F818310746DB00059300F05EFC51
:103AD000059B08EB07021A444368190B1B05934228
:103AE00071F100010AD205EBD5755249BA0A204698
:103AF0006B1014F078FDD1E79846D8E708F13F083D
:103B000007F13F034C4A28F03F0841494B484344E2
:103B100023F03F03136008F1E0432A460397029322
:103B20004FF480230193464B00935B4613F087FAD2
:103B3000804638B101F00AFE42490246204614F0A0
:103B400052FDABE72046404914F031FD40233F4A87
:103B50002F493F4813F021FCB0FA80F2DFF828B17A
:103B6000204652093B498BF8002014F020FD3A4BC7
:103B70000122204639491A7014F019FDD6F818317F
:103B8000204637490393D6F814310293D6F8103102
:103B90000193D6F80C310093D6E9412314F007FDC8
:103BA000D6F82C212F4B304E022A08BF1E4601F0BA
:103BB000D7FC2E4903462E4A9BF800C0BAF1000FED
:103BC00018BF0A462B482C490095BCF1000F18BFBE
:103BD00001462046CDE901213246284914F0E7FC90
:103BE000134B2046D3E90021059B920A9B0A42EA27
:103BF000815223490093BB0A14F0D9FC4FF480731F
:103C00004FEA99221F49204614F0D1FC23E700BF58
:103C100088AA28205C320260B2C8282000AC282084
:103C20006D3202607D3202608F320260BE3202600D
:103C300020AA28201133026084BC282028AA28202A
:103C400000802020583302606533026072C828204B
:103C500088BC28207933026071C828204B43026059
:103C60008933026064300260693002604132026070
:103C7000463202604C4302604B320260BE33026047
:103C8000E83302601934026070C8282001292DE948
:103C9000F043044685B05AD9556868492846FEF76E
:103CA00079FB064620BB082000F0F0FC051E06DA72
:103CB0006349204614F097FC6FF0040028E000F000
:103CC00025FB0746284600F021FB5E4B5E49B0FB12
:103CD000F3F00A23B0FBF3F203FB12035B4A204626
:103CE000B7FBF2F214F063FC594B1E7000200FE09A
:103CF00058492846FEF74EFB064648BB00F046FBF7
:103D0000456845B92046544914F06DFC6FF0120027
:103D100005B0BDE8F0832A46504920464C4F14F0C8
:103D200046FC32462905304612F0C6FE05460346DB
:103D300030B14B4A20464B4914F039FC3E70BBE78A
:103D4000494A2046474914F032FC3D70CEE7474DC2
:103D500047492846FEF71EFB0646C8BB4FF48011B4
:103D60000A2712F024FE3A4B05464FF480113046E4
:103D70001E7012F064FE64264FF47A7980463D4945
:103D80002046B5FBF7F3B3FBF6F206FB1233B5FBA7
:103D9000F9F214F00CFC384920462D01B8FBF7F776
:103DA000B7FBF6F3B8FBF9F206FB137314F0FFFB55
:103DB0005A233249B5FBF3F3B3FBF6F206FB123399
:103DC00042F22832B5FBF2F2204614F0F0FB8DE708
:103DD00000F0DCFA426805466AB920461E4914F034
:103DE000E6FB20462A69264914F0E1FB25492046D6
:103DF00014F0DDFB7AE703780A272349234E806914
:103E0000012B18BF0E460F49B0FBF1F1B1FBF7FCD7
:103E100007FB1C1102910D49B0FBF1F01C49CDE9E3
:103E20000060204614F0C3FB2B69AA68204619499C
:103E300014F0BDFB6B69EA681749C5E741340260BD
:103E400047340260A08601008B34026040420F00BC
:103E500071C82820A1340260A6340260B93402601F
:103E6000E9340260EE340260013502603C340260E5
:103E7000063502600C3502602B3502604A3502605F
:103E8000A3350260B8350260304402604C430260E2
:103E90000C36026030360260563602602DE9F84F6B
:103EA00005460E46174698460224AC4201D3BDE8AB
:103EB000F88F56F824A04FEA840B0E495046FEF7BF
:103EC00069FA60B904F101094D4508D906EB0B0305
:103ED00058681BF0BCFB386009F10104E5E70649AE
:103EE0005046FEF757FA10B90123C8F80030A14632
:103EF000F2E700BF7C3602607F3602602DE9F047B2
:103F000000239EB0012905460E461446CDE9043330
:103F100008D86FF015043B4914F065FB20461EB02D
:103F2000BDE8F08700F032FA436833B936492846D5
:103F30006FF0120414F057FBF0E705AB04AA21461A
:103F40003046FFF7ABFF63681A782F2A2AD15F2229
:103F5000194606A81BF0AEFB00262C4B2C4F1E70FA
:103F60008DF8776000F09CFE06AB2A4A08212846AF
:103F700014F010FBDFF8B4903D6012F010FD264BFA
:103F800080468A46254A009331464B4606A800F0F3
:103F900095FD3E60044658B102462149284614F07A
:103FA00022FBBBE71F4A602106A810F065FCD3E79F
:103FB00012F0F5FCB0EB080661EB0A07D9E9000145
:103FC00056EA07034FEA90284FEA912908BF234693
:103FD00048EA81581ABF32463B460122FEF7C0F933
:103FE00042464B46CDE90201CDE900670E4928461D
:103FF00014F0DDFA2846DDE90412FFF711FD04464E
:104000008CE700BF85360260B636026071C8282092
:1040100080BC2820F83602603D36006000AC2820C5
:1040200005370260F03602601737026020AA2820A8
:10403000012370B599429CB014464FF0000205462A
:104040000E46CDE9022307D86FF015041D4914F080
:10405000CAFA20461CB070BD03AB02AA2146304606
:10406000FFF71CFF63681A782F2A25D15F221946B3
:1040700004A81BF01FFB0023134A144928461370A1
:104080008DF86F3014F093FA114B04A8114A1249BD
:1040900000934FF4004300F011FE044602460F491E
:1040A000284614F084FA002CD3D12846DDE9021208
:1040B000FFF7B6FC0446CCE7094A602104A810F0DB
:1040C000DBFBD8E73E37026071C828206937026001
:1040D00020AA28200000202000AC2820823702607F
:1040E000F036026010B5184C236803F00703022B6A
:1040F00004D9164A0321204613F0D0FF032000F014
:1041000049F9002808DC236813F0060F04D0104A90
:1041100002210D4813F0C2FF00F066FC40B1236895
:1041200013F0060F04D00B4A0221074813F0B6FF24
:10413000236803F00703022B04D9074A032102482E
:1041400013F0ACFF002010BDB02628209937026084
:10415000B3370260DF3702601838026037B50A46AD
:10416000054601460B4809F04BFC044670B9012294
:104170002946084809F00EFE044638B90123EF220B
:10418000294604480093022315F0F0FE204603B0B0
:1041900030BD00BF3C282820F0B587B02C4B00264E
:1041A0002C4F02AC0FCB254684E80F0055F8041BBA
:1041B000384615F01DFF044660B1274803685F07C5
:1041C00005D0264A33460121009413F07AFF204699
:1041D00007B0F0BD0136042EE8D11E4815F0BFFE31
:1041E00001280ED11E49FFF7B9FF044648B11A480D
:1041F00003685D07EBD01B4A2346012113F057FFEC
:10420000E5E719490020FFF7A9FF044630B112483D
:1042100003685907DBD0154A2346EEE70D4808F03E
:1042200039F8044630B10C4803685A07CFD0104A19
:104230002346E2E7074808F073F804460028C6D092
:10424000054803685B07C2D00A4A2346D5E700BF8A
:10425000700402603C282820C02628203B390260D8
:10426000EC2028204D390260002128205B390260B3
:104270006939026077390260074B00040122C3F8F4
:10428000A010C3F8A400C3F8B0205A69D207FCD527
:1042900001225A61704700BF00402A4010B50C4609
:1042A00001460020FFF7E8FF0120FFF7E5FF0220AD
:1042B000FFF7E2FF134B144AC3F8A010C3F8A42081
:1042C0000122C3F8B0205A69D207FCD5D3F8000107
:1042D00021225A6183B245F60D52206093420ED0DE
:1042E00045F69D52934208D1C0F34250032806D0B0
:1042F000031F58425841000110BD0020FCE7082070
:10430000FAE700BF00402A4004000300092838B53E
:1043100004462ED8184D05EB40035B78012B16D0D0
:10432000022B1CD01BBB154BD3F8003113F47C1FA0
:10433000C3F3054205D0124802210023FEF710F80E
:10434000024615F814300133B2FBF3F038BD0B4BC5
:10435000D3F8F02012F03F02F3D00A48ECE7074B05
:10436000D3F8F030C3F3052213F47C5FF4E7064A78
:10437000E7E70020EAE700BFC53A026000800D4091
:1043800000887B3600F0FB0200A4781F00487047CD
:10439000A8BC28202DE9F04F83B000240928064648
:1043A00000AFC7E9004400F23E81A04D2022214623
:1043B00028461BF041F930462E77FFF7A7FF9C4BAC
:1043C0001822A8619B499C48C3F85C12DA66C3F8BE
:1043D00060021A67C3F86412A1F530415A67C3F846
:1043E000681201F5E0419A67C3F86C12DA67C3F806
:1043F0007012C3F88020C3F87412C3F88420C3F885
:104400007812C3F8882001228C49C3F82C27C3F8FE
:104410003027C3F83427C3F83827C3F83C27C3F83C
:104420005027874B8A6913F8160003EB460322F0E6
:1044300060425B7822F440721B0243EA40731343EC
:104440008B61D1F8843043F00C03C1F884307D4B8C
:104450001A6842F002021A6019687B4A21F4F1419D
:1044600021F073010904090C0A4378491A604FF0DE
:10447000FF325A609A6822F07F4242F000529A60FE
:10448000DA6822F07802DA60714A1A625A629C6233
:10449000DC62D3F8B82022F03F0242F00102C3F8F8
:1044A000B820D3F8BC2022F03F0242F00102C3F84A
:1044B000BC2021221C611A675A6740F20562C3F8CA
:1044C0008020C3F884201A6822F002021A60614A30
:1044D0009A610222DA61604A42F8044B8A42FBD1B7
:1044E0001A68584C42F001021A60236813F0010860
:1044F000FBD1584B4FF0020939464046A36140F2C8
:10450000F563C4F81C90C4F8003240F26643DFF84B
:1045100074A1C4F8103240F29943C4F820324F4BD2
:10452000C4F8303242F20143C4F8343240F2354329
:10453000C4F840324A4BC4F850324A4BC4F85432A3
:10454000494BC4F8603242F20123C4F86432FFF7E9
:10455000A5FE064678B9DAF8003013F0060F05D04C
:104560003B68424A4946504613F0A1FD00200C37F3
:10457000BD46BDE8F08F830241464FEA065B04204A
:104580002366FFF779FE391D5846FFF787FE804600
:10459000002844D08302594604206366FFF76CFE6E
:1045A0003B6885F800902B617B68C5E9026846444A
:1045B0006B616E60BFF34F8FDAF8003003F00703D2
:1045C000022B2AD928786C46294B8CB029496E6871
:1045D0006A46012818BF1946AB69C2E90701264996
:1045E000DFF8A4C0B3FBF1F151622449B3FBF1F34E
:1045F0000A21B3FBF1F001FB1033936240F2024356
:1046000093851F4BC2E905C642F8103F00234FF4C3
:1046100073511C4802F0A6FDA5466868A7E74FF055
:1046200001096066BCE76FF01500A0E7A8BC282070
:1046300000801F40F9B00100F910010000C00F40D8
:10464000C53A026000402A401200FFFF00432A40A2
:1046500040000080F05AF05A00422A409F0418306F
:10466000EB06180A063201263806180AA03902603D
:10467000304402604C43026040420F00A0860100BB
:1046800007000001A0262820033A02602DE9F04F20
:1046900091B00A2805464FF0000302AF28BF092554
:1046A00007F110084246194601339D4242F8041BA7
:1046B000F9DA6B1C0126B34265DC4FF000094FF0BC
:1046C000FF34DFF8F4A1C84607F1100353F828308F
:1046D0001846FB60FFF71AFE8346F868FFF75AFE9C
:1046E0000646002868D1DAF8002012F0060F21D023
:1046F0006D4B0A226D49BBFBF3F3B3FBF2F0BBFB3E
:10470000F1F102FB10336A486E468AB002AAC2E990
:10471000073040F20243DFF8BCC19384654BC2E925
:1047200005C142F8103F00234FF43251624802F0B5
:1047300019FDB546002CC0F2A5805F4E2046FFF75C
:1047400029FE336803F00703022B17D92046FFF731
:10475000DDFD05462046FFF7D9FD534A0A23B0FB8D
:10476000F2F2B2FBF3F103FB1122504B032130466E
:104770000092524AB5FBF3F313F0A3FC20463C37FA
:10478000BD46BDE8F08F08EB8604D4F800B0FB60AE
:104790005846FFF7BBFD54F804AD81465046FFF77D
:1047A000B5FD8145FB6803D2A045C4E900BAECD150
:1047B000013680E7984687E7484511D2DAF80020AD
:1047C00012F0060FB6D0384B0A223849BBFBF3F380
:1047D000B3FBF2F0BBFBF1F102FB1033384893E777
:1047E000000500224FF48011A0F5801012F064F94A
:1047F0004FF400217860002012F0D9F8DAF8002098
:10480000B86002F00702022A36D9284A0A217868DD
:10481000C7F800D08CB0BBFBF2FC234ABBFBF2F321
:10482000B3FBF1F201FB123E264A274B002808BFDA
:10483000134602AAB868DFF8A0B0C2E907E34FF454
:104840007A73B0FBF3F353626423B0FBF3F0B0FB75
:10485000F1F301FB130040F2024393851B4B90627E
:10486000C2E905BC42F8103F00234FF473511248CF
:1048700002F078FCD7F800D07B68002B7FF45AAFA9
:10488000FC68B146A84508F1010393DB002CBFF694
:1048900054AF094803685B0703D00D4A012113F0A8
:1048A000FDFB6FF0040469E7A086010040420F00A1
:1048B000273A026005000001A0262820B03A0260D5
:1048C0003E3A02605D3A0260E9340260070000018E
:1048D000913A0260623A0260713A0260F8B5154B93
:1048E0001446079F1B7813B34FF0FF324FF0FF338E
:1048F00011480EF0E9FC21460022104806F046FB64
:10490000044658B905460D4EAF4209D9069B7A1B9D
:104910003046591906F01CFB002806DC6FF0040431
:1049200005480EF049FD2046F8BD0544ECE76FF060
:104930000804F8E7B2D82820C8BC2820DCBC28200E
:104940002DE9F043A3B00D468046914600AF3946AD
:1049500006F03AFB0446D8B11F4803685A0712D044
:104960006D468AB06A461D4BD461C2E905384FF4E2
:10497000007313841A4B42F8103F00234FF4115177
:1049800002F0F0FBAD4620468C37BD46BDE8F08313
:10499000D7F88430064601224146C9E90030C5E90E
:1049A00000002872284606F023FA04460028EAD0C0
:1049B000094803685B07E6D06D468AB06A46094B32
:1049C000D461C2E905384FF400731384044B42F8F4
:1049D000103F3346D2E700BF8C262820D93A026028
:1049E00004000001E53A0260F0B583B000232A4ECE
:1049F00000AFC7E900333378002B4AD1274813F0C2
:104A0000E6FB274D044660B12B685A0705D0254ABE
:104A100003460121284613F04AFB20460C37BD46C9
:104A2000F0BD3A4601211D4802F08EFE3A1D0221DA
:104A30001A4802F089FE1C4806F00CFB044628B117
:104A40002B685B07E9D0194A0346E2E7012333707C
:104A50002B6803F00703022B1BD96E468AB0D7E9F7
:104A60000032A3FB02321B0D43EA02336A461049AF
:104A700051611049C2E906134FF4007313840E4BC1
:104A800042F8103F4FF413510346284602F06AFBE8
:104A9000B5460024C1E700BFB3D82820F13A026030
:104AA0008C262820F43A02608C2128203D3B0260AD
:104AB0004A3B0260633B0260040000012DE9F04FB5
:104AC0008DB09B46002300AF7A6000223961B86048
:104AD000C7E90623FFF75AFC0546FFF785FF0446A2
:104AE000C0B907F1180207F12401B868FFF728FFE1
:104AF000044678B9696891B962480368590703D0D8
:104B0000614A012113F0CAFA6FF0120407F1240080
:104B100006F000FA20463437BD46BDE8F08FD7E9ED
:104B200006593B694FEA015C0A0B5E1949F1000026
:104B3000B445824120D253480268520715D06E46D0
:104B40008AB06A46514B2D0D1162536145EA093511
:104B50004FEA1953C2E90653052342F8103F4FF4B8
:104B60002151234602F0FEFAB54607F124006FF00A
:104B70001B0406F0CFF9CDE73B69A2467C6103F147
:104B8000E043FB607B69AB427AEB09022CD307F16F
:104B9000240006F0BFF92A464B46F968786812F0FF
:104BA000EDF8BBF1000F01D0CBE9005935480268A0
:104BB00002F00702022AADD96E468CB06A46BB6885
:104BC000334993613B69516193624FF4007393855C
:104BD000304BC2E9085942F8103F00234FF473519B
:104BE00002F0C0FAB54695E77B6907F12400EA1A9E
:104BF00048F2010369EB0A019A4271F1000126496A
:104C000028BF4FF4004206F0A3F9B0F1000821DC00
:104C10001C4803685B0712D06C468AB06A461F4B7B
:104C2000C2F8208053617B69C2E9063A052342F845
:104C3000103F00234FF4215102F094FAA54607F1EA
:104C4000240006F067F9B8F1000F14BF44466FF076
:104C500004045FE7FB68424678690F4918181AF0A8
:104C6000C3FC7B6918EB0306BB6D4AEBE87A7E61F7
:104C7000002B87D030462A464B465146BE6DB04782
:104C800080E700BF8C262820683B02609B3B0260C7
:104C9000003C026007000001E0282820EF3B026092
:104CA00010B5044C237823B1034806F033F90023F0
:104CB000237010BDB2D82820DCBC28202DE9F04F8D
:104CC00087B093461D460022002304AF06468A465D
:104CD000C7E90023FFF788FE0446002848D1FFF704
:104CE000DFFF26481AF019F83A4625493046FFF703
:104CF00027FE044600283BD1224B0122D7E9008938
:104D00001A70214B42460190504600934B46CDE924
:104D100002B512F041F83B6B0BB1C3E90089DFF833
:104D200078B0DBF8003003F00703022B16D9EA460F
:104D30008CB004AA154BAD0AC2E905364FF40073D6
:104D400095629385124BC2E9088942F8103F00230F
:104D50004FF47351584602F005FAD546DBF800309F
:104D600013F0060F04D00B4A02210B4813F096F9FA
:104D700020460C37BD46BDE8F08F00BFC8BC2820D8
:104D8000DCBC2820B2D82820DD480060263C026028
:104D9000070000014B3C02608C26282030B59FEDB7
:104DA000157A0D4600249C4211DB07EE903AF8EE8E
:104DB000E76AC7EE267A37EE800AB1EEC00AF7EE50
:104DC000007A002487EE807A9C4206DB30BDF5EC49
:104DD000017A013407EEA77AE5E7F1EC017A0134B4
:104DE000F2EC016A67EE877A67EEA67AE0EC017A68
:104DF000EAE700BF000000002DE9F04F2DED068B23
:104E000005688FB000290446D5F82431D5F804612F
:104E1000D5F820B104920A93C0F27783D5F81831FF
:104E20008B4240F37283002AC0F26F83436893423F
:104E300040F36B8307EE90BAF8EEE79AF1EEE99A49
:104E4000C36828460196CDE90213D5F82C310093AA
:104E5000D5E94C2312F07CF8804600287FD1D4F8A5
:104E600000A0B7EE008ADAF8203103EBD3735F10AD
:104E7000474536DC88EE299AB300DFEDB38A099303
:104E80004FEA8B030C9300230593D5F80C31059A58
:104E9000934253DC099B28460093D5E94E2312F038
:104EA0008AF80246002858D0E168334695ED150A85
:104EB0000846FFF773FF3246E16BE06800F054FBF1
:104EC000E36B20460393D5F81831CDE90163D5F89B
:104ED0002C310093A16AD5E9502311F070FF804670
:104EE0003DE04FEA4803DAED487A9AED140A4FEABA
:104EF000880900EE903AF8EEE77A08F10108F8EE3A
:104F0000E00AC0EEA70AFEF70BF8DDED047AC8EE62
:104F1000008AF8EEE77A68EEA78AB0EE680A10F029
:104F2000C3FE636B4B4483ED000AB0EE680A11F0D8
:104F3000FBF8A36B4B4483ED000A99E7D5F84831A1
:104F400048220599284602FB013B099B0093DBE9B7
:104F5000002312F030F8024638B96FF007084046D7
:104F60000FB0BDEC068BBDE8F08F95ED150A33460A
:104F7000D4E90310FFF712FF3246E16B206900F01D
:104F8000F3FAE36B01962046CDE90263D5F82C31A4
:104F90000093216ADBE9042311F011FF8046002809
:104FA000DDD1E36B204603930A9BCDE90163D5F87D
:104FB0002C310093E16ADBE9062311F000FF804603
:104FC0000028CCD1E36B204603930A9BCDE9016313
:104FD000D5F82C310093216BDBE9082311F0EFFEAB
:104FE00080460028BBD120463246216A11F0A4FD3C
:104FF0000A9AE16A11F0A0FDE36A606C0793236BE3
:105000000B900893DDE90421D4E9007303FB01232D
:10501000D7F82421A16802FB03FA002940F096800A
:105020009200079900EB8A001AF0DEFAA06C4FEAB2
:105030008A08D7F824210899920040441AF0D4FA3B
:105040004FF00008CDF82080D5F810312069434595
:1050500000F334813246E16B00F086FAE36B01968F
:105060002046CDE90263D5F82C3100936169DBE974
:105070000A2311F0A4FE804600287FF470AFB045EB
:10508000C0F20882099B28460093DBE9022311F055
:1050900092FF024600283FF460AF95ED150A3346B3
:1050A000D4E90310FFF77AFE3246E16B206900F085
:1050B0005BFAE36B20460393D5F80831CDE9016331
:1050C000D5F82C310093A169DBE90C2311F077FEB0
:1050D000804600287FF443AFE36B20460393D5F866
:1050E0000831CDE90163D5F82C310093E169DBE9A2
:1050F000102311F064FE804600287FF430AFD5F80D
:105100000821A069424500F3D681216C00F02CFAF9
:10511000236C2046CDE90263D5F808310193D5F818
:105120002C3100936169DBE90E2311F048FE8046C3
:1051300000287FF414AFB045C0F2D681059B01333F
:105140000593A2E60000FE4200000000A26CF6EE0D
:10515000006A40461FED055A0D92D7F814215343BB
:105160009B000693D7F814219042BFF669AFD7F899
:105170002021B0EE686AF0EE685A00FB02F1134697
:10518000089A02EB810E079A02EB810CF14600228D
:10519000E04693422ADC85EE857AE26C069B514418
:1051A0004FF000081A44C6EE057AB5EE407A82ED5B
:1051B000007A226DF1EE10FA1A44F5EE407AC2ED53
:1051C000007A14BF88EE076AB0EE686AF1EE10FA52
:1051D00014BFC8EE275AF0EE685AD7F82021904540
:1051E00028DB069B013004330693BBE7F8EC017A19
:1051F0000132B9EC017AF5EEC07AF1EE10FAB5EEB3
:10520000C07A48BFF1EE677AF1EE10FAF4EEE75A91
:1052100048BFB1EE477AF1EE10FAB4EEC76A58BF54
:10522000F0EE657AF1EE10FAF0EE675A48BFB0EE94
:10523000476AAEE7BCEC017AFEEC017A27EE067A0B
:1052400067EEA57AB5EEC07AF1EE10FAF5EEC07A07
:105250004CBF37EE667A37EE267AF1EE10FABDEEE5
:10526000C77A4CBF77EEE67A77EEA67A17EE109AF9
:10527000FDEEE77AB9F17F0F17EE902A13DC19F1F2
:105280007F0F13DB4FFA89F90B9B7F2A03F80190FC
:105290000FDC12F17F0F0EDB52B20D9B08F10108FB
:1052A0005A54013199E74FF07F09EDE76FF07E091D
:1052B000EAE77F22F1E76FF07E02EEE7236A089AC1
:1052C000676A03EB020C636803FB08F307EB8307D1
:1052D00083180B93BE46D5F828310D9798FBF3F34E
:1052E000079300230693D4E90093DDE9052103FB2E
:1052F000021A079B616CD9E94802434302FB0A3357
:10530000A268002A70D1E14601EB83035FED727A57
:10531000904261DC069B69EE277A0133EEEC017A5C
:105320000693069A049B9342DDDA3B460122F3EC96
:10533000019A0499914278DABA464FF000091FEDBC
:105340007EAA9AED000A30EE690A10F0F3FC049A86
:105350003AEE00AAAAEC010A4A4509F10109F0DC7B
:1053600088EE0A7A0023D7ED007A0499994203F176
:10537000010367EE277AE7EC017AF4DC0C9A00214E
:105380000B981AF059F94FF0000E0D9B0798F3ECAB
:10539000017AD4F848C00D93059BD4E9002707FB98
:1053A00003E7D2E94831434301FB0733A1680029F1
:1053B0004FD10B9F0CEB8303D2F8200181423EDBDF
:1053C0000EF1010E049B7345DFDA089B08F101081A
:1053D0000C9A1344089337E6F9EC016A0132B3ECF6
:1053E000017A46EE877A93E7079AD9F814915FED30
:1053F000AA7A09FB0A290A46E2461A44002398427F
:1054000007DCE26C02EB890292ED007A67EE877AA4
:1054100080E712F9011B0133FAEC016A07EE101A5A
:10542000B8EEC77A47EE267AE9E7F3EC017A013263
:10543000F4EEE97AF1EE10FA77FEA99A79E797EDA2
:10544000007A0131F3EC016A07EEA67AA7EC017A43
:10545000B2E7D2F814119C44079801FB0707216DAD
:1054600001EB8701002791ED007A0B9967EE877AAF
:10547000D2F820319F42A3DA1CF9013B013791EDAC
:10548000007A06EE903AF8EEE66A06EEA77AA1EC0C
:10549000017AEDE7E368626903EB880302EB8802B7
:1054A00008F10108D3ED007A92ED007A77EE877A61
:1054B000C3ED007AE3E500EB88074FEA880908F1BD
:1054C0000108D7ED009AB1EE690A10F033FC30EE16
:1054D000080AE36989EE807A4B44D3ED007A67EEDF
:1054E000877AC7ED007A0AE6E368626903EB88030E
:1054F00002EB880208F10108D3ED007A92ED007A00
:1055000077EE877AC3ED007A15E66FF0080826E596
:10551000030410F4F84FC0F38421C0F3090203F030
:10552000004310D162B1712110465200013912F4CA
:10553000806FF9D0094A43EAC15302EA803213432B
:1055400000EE103A70471F2943EA423316BF70310C
:1055500043F0FF4343EAC153F2E700BF00E07F009E
:1055600000487047BC3C0260002AB7EE005A9FED2D
:105570002E6AB8BF1F32DFED2D5A2DE9F8430446DD
:105580004FEA62184D1C0026464501DBBDE8F88352
:1055900023469FED260A04F18009F3EC017AF5EE2B
:1055A000C07AF1EE10FA48BFF1EE677AF4EE407A75
:1055B000F1EE10FA37FE800A4B45EED180EE060A76
:1055C00011F010FB0746FFF7A3FF2A466FF07E019C
:1055D00025F8017CB5EE400AF6EE006AF1EE10FA0D
:1055E00014BF85EE007AB0EE657AF4EC017A67EECE
:1055F000877AF5EEC07AF1EE10FA4CBF77EEE67AD4
:1056000077EEA67AFDEEE77A17EE903A8B42B8BFB6
:105610000B467F2BA8BF7F234C4502F8013FE4D106
:1056200001362235B0E700BF0000FE420000000056
:105630002DE9F0479FED277A904607460E464FF03A
:1056400000094FF0083AC14503DBB0EE470ABDE858
:10565000F08702220024BB5803F00F35C5FA0AF583
:105660001B0903F00F33C3FA0AF391199059096922
:105670002FFA85FC2FFA80FE2CFB0E442D0A2FFA00
:1056800085F5000A2FFA80F025FB00452FFA83F4F8
:105690002FFA81F024FB00541B0A2FFA83F3090A26
:1056A0002FFA81F123FB01440432122AD3D107EEF1
:1056B000904A37F8120BFFF72BFF36F8220BF8EE63
:1056C000E77A09F1010967EE807AFFF721FF07EE1B
:1056D000807AB8E7000000002DE9F8439FED1A7AC0
:1056E000904606460F464FF00009C14503DBB0EE79
:1056F000470ABDE8F883022200239459D5592FFAAE
:1057000084F12FFA85F021FB0033240A2FFA84F468
:105710002D0A2FFA85F524FB05330432222AECD119
:1057200007EE903A36F8220BFFF7F2FE37F8220B1D
:10573000F8EEE77A09F1010967EE807AFFF7E8FEF3
:1057400007EE807AD1E700BF000000000930092889
:105750009ABF024B53F8200001487047F8070260D7
:10576000CA3C02602DE9F04FADF61C1D0C461646F2
:1057700000214FF4BC728146039319F05DFF4FF492
:105780008073C9F80041002248460093002311F0BD
:1057900012FC014610B96FF0020B79E00268B84BB9
:1057A0009A4240F074824368012B40F07382826811
:1057B000B2F5807F40F06E82484619F015FFD9F8A7
:1057C0000C30002B40F06982D9F8448008F1FF3397
:1057D000012B00F26282D9F84830202B40F05D8224
:1057E000D9E90812D4E9020388429341D3D3D9F806
:1057F0002820002A40F34181D9F83040002C40F3A2
:105800003C81D9F83450002D40F33781D9F8381055
:10581000002940F33281D9F83CA0BAF1000F40F3DF
:105820002C81D9F84070002F40F32781D9F82CC083
:10583000BCF1000F40F3218192FBF5F305FB13202F
:10584000002840F01A8142EA0C0095FBF1FE00F0BE
:105850001F0001FB1E5B50EA0B0B40F00E81C9F8E4
:105860002031C9F81C71C9F82C81C9E9451A59437E
:105870004823C9E9412C03FB04F2039B9A42C9E97E
:105880004345C9E9491E08D9C9F848B16FF0060B6C
:1058900058460DF61C1DBDE8F08FC9F84861002E72
:1058A000F4D05946304619F0C7FE764AD9F82C0193
:1058B0005F460E9209F59872D9F81831D9F804119B
:1058C000714CCDF84CB01E9409F5A074CDF86CB0B5
:1058D000CDF894B0CDE90F200122CDE9142B6B4A0D
:1058E000169209F59C72CDE9172B0122CDE91C2BEC
:1058F000D9F84C20B2FA82F25209CDE923B2644AB7
:10590000CDE91131CDE9191BCDE921312692591C80
:1059100009F5A872CDE91F40CDE9272BCDE9293B38
:10592000CDE9311B5B495C4A369109F5B0712E9285
:1059300009F5AC72379103212F920422CDF8B4B04F
:105940003092CDF8D4B0CDF8E8B0CDF8F4B0CDF8C1
:1059500014B1CDE9381B09F5B871CDE93B1B4F49AE
:105960003E9109F5B471CDE92BBBCDE933BBCDE94F
:105970003F12CDE9413BCDE943BBD9F81060BE42AF
:105980004BD80EAB0722996919B1D969002900F0EB
:105990008781013A03F12003F5D1D9F84C30002B6F
:1059A00040F07081D9F80C010022482490427FF722
:1059B0006FAFD9F8485104FB02F16B1869585D6864
:1059C000294300F06D81D3E90215294300F0688175
:1059D000D3E90415294300F06381D3E9061529436F
:1059E00000F05E81D3E90815294300F05981D3E91D
:1059F0000A15294300F05481D3E90C15294300F01E
:105A00004F81D3E90E15294300F04A81D3E91013E1
:105A1000194300F045810132C8E7F61BD9F814306C
:105A20004FF0000A4022202E19465346484628BF10
:105A30002026E7FB02130A46B401009411F0BBFADA
:105A4000014600283FF4A7AE224646AC46A819F00E
:105A5000CBFDD4E90C830393039AD4E90E1318EB1E
:105A6000010542EB0303D9E90802A84272EB0303E4
:105A7000FFF491AE18F03F0F12D06FF0050B07E75F
:105A800045545131FC3D0260EE3D0260F23D026042
:105A9000E33D0260D13D0260DA3D0260C63D026036
:105AA0000EAB072004F1170CDA69002A2ED11A6810
:105AB000651E013A049215F8012F0592049A12F816
:105AC00001EF0492059A964520D1BEF1000F01D056
:105AD0006545F0D1A0699A689042CED11D69002D2C
:105AE0005AD0E269022AC8D1206ADA689042C4D149
:105AF000626A9542C1D15A680398C2F8008050602A
:105B00005A6902B111600122DA6103E0013803F140
:105B10002003C9D123786C2B73D123792E2B70D11C
:105B20006378642294F803C0303BACF1300C02FB84
:105B300003CCA3780A22303B02FB03CCD9F80C310A
:105B400063455ED9A64607ADBEE80F000FC59EE8C7
:105B500003004FF0000385E80300D9F848510DF128
:105B600021008DF8343048234F4903FB0C55D9F8F8
:105B70002C310493FCF70EFCC0B9D9F80431002D88
:105B80003FD0A269002A7FF478AFE269012A7FF44E
:105B900074AF226A9A422EE0DA68002AABD0E0693C
:105BA00001287FF46AAF206A8242A3E73F490DF1E2
:105BB0002100FCF7EFFB18B90835D9F80431E0E70C
:105BC0003B490DF12100FCF7E5FB10BB1035D9F87E
:105BD00004311A46A169049881427FF44EAFE1690D
:105BE000002AD2D002297FF448AF216A99427FF47B
:105BF00044AF636A93427FF440AF039BC5F80080D3
:105C00006B600AF1010A403456457FF422AF3744F5
:105C1000B3E628490DF12100FCF7BCFB28B9183583
:105C2000D9F82431D9F80421D4E723490DF1210012
:105C3000FCF7B0FB08B92035F2E720490DF121004F
:105C4000FCF7A8FB08B92835C1E71D490DF1210073
:105C5000FCF7A0FB18B93035D9F80831E2E719494B
:105C60000DF12100FCF796FB18B93835D9E941321E
:105C7000B0E715490DF12100FCF78CFB0028C0D1DD
:105C80004035E9E7D9E94C23C9E950238AE64FF0CA
:105C9000FF3BFDE56FF0010BFAE56FF0030BF7E555
:105CA0006FF0040BF4E500BFA43D0260AC3D026060
:105CB0007A550260B43D0260B73D0260BA3D0260B1
:105CC000BD3D0260C03D0260C33D0260D0E90032CC
:105CD000190B41EA025182EA12324B40510641EA65
:105CE000D31183EA43634A40D90E41EA421182EA62
:105CF000D2624B400749C0E900325943064800FBD5
:105D00000212A3FB003013181B0A00EE103ABAEE81
:105D1000C40A704791F445251DDD6C4F10B552EA59
:105D2000030480ED020AC0ED030A04BF044B054AD8
:105D30000161C0E90023029B4361039B836110BDA5
:105D4000E6493C859BEA8F742DE9F84F2DED048BD5
:105D5000D0ED027A04460E460769F5EEC07AF1EE00
:105D600010FA07D839463046BDEC048BBDE8F84F31
:105D700011F06DBAB7EE008A88460A46002388EE15
:105D8000277ABB4230DB3946304611F060FAB14623
:105D900006EB8000DFED728A002590ED009ABD428F
:105DA0002ADB88EE287A32460023BB4230DBD4ED72
:105DB000037AF5EEC07AF1EE10FA08D9F4EEC87A5B
:105DC000F1EE10FA03DA63690BB1A3699BBB2046BD
:105DD000DFED637AFFF77AFF0020B84220DB781E00
:105DE000BDEC048BBDE8F88FD2ED007A013367EE8D
:105DF000877AE2EC017AC4E799ED000A013530EECA
:105E0000490A0FF097FF78EE808AA9EC010AC6E7ED
:105E1000D2ED007A013367EE877AE2EC017AC4E7CB
:105E2000B8EC017A77EE877AB4EEE70AF1EE10FA71
:105E3000D6D40130D1E77B1E38EE678A002507EE05
:105E4000903A2B46F8EEE77A88EE277ABB4240DBA1
:105E5000002D87D06E10D4E90510771E7B1C4DD124
:105E600005F1FF3900EB85074FEA850AB846CB46B6
:105E7000BBF1000F48D10B1F00EB86065144B04226
:105E800056D1A769002694ED037A3B46DFED347ABC
:105E9000F3EC016A77EEA67AB4EEE77AF1EE10FA47
:105EA00003D40136B542F3D14E462046FFF70EFF2C
:105EB00020EE270ADFED2A7AB7EC017A77EE877AAF
:105EC000B4EEE70AF1EE10FA42D5636953F82B00FD
:105ED00086E7D8ED007AF4EEC77AF1EE10FA09DB26
:105EE000626942F82530A269D8F8001002EB8502F9
:105EF00001351160013308F10408A7E73A462B4643
:105F0000013F11F0BAF9A9E7036858F804CD0A680F
:105F1000C0F800C0C8F8003051F82B300B605B4669
:105F200041F82B2000220BF1FF3B11F0A6F99FE76F
:105F3000D0F800C057F804ED53F8042F40F804EBF4
:105F4000C7F800C051F804CDC3F800C00A6096E756
:105F50000BF1010B5E45AFDA636953F826003FE7AA
:105F6000000000002DE9F04F14460546084689461A
:105F70002DED028B8DB00493FCF71EFADDF860A0C6
:105F800080467CB1199B002B07DC6FF0060420468D
:105F90000DB0BDEC028BBDE8F08F2B6801249B6D2A
:105FA000CAF80030B8F1000F10D001226949284624
:105FB00011F0ADF9002805DB199B9C42E5DA4AF89F
:105FC000240001344FF0000BC3451FD3DFED628A7C
:105FD0004FF0FF36B0EE688AD1460027B04604EB9A
:105FE000060B0394BB4566DC731C00F0A480B00074
:105FF000A21B4AF826805C4600F10801023A0430F0
:1060000092005144504419F0FDFAE1E719F80B30C1
:1060100009EB0B0703F0E002C02A1DD003F0F002E9
:10602000E02A1BD003F0F803F02B0CBF0426012656
:106030000BEB060339462846434588BF0126324606
:1060400011F065F900280BDB199B9C429DDA4AF898
:1060500024000134B344B7E70226E9E70326E7E763
:10606000BB19019343F23C0317F8012B2846ADF806
:1060700028304FF07803110902F00F028DF82A3012
:10608000364B9A5C595C8DF82C203E228DF82B10F3
:106090000AA98DF82D20062211F039F90028019B5C
:1060A00006DB199AA2427FF770AF4AF82400013448
:1060B0009F42D6D1CEE709AB07AAD9F800102846EF
:1060C00011F018F90AAB08AA59F8041F284611F074
:1060D00011F9DDE9093201929A1802920299EA69EE
:1060E000914226D81A460799A869059319F07CFAB7
:1060F000059BA869019A0899184419F075FA029A43
:10610000A969284611F003F9002812DBB8F1FF3F16
:106110006B684FEA800207D09918D1ED007AF4EE4F
:10612000C87AF1EE10FA04DD13443E46804693ED42
:10613000008A013756E7049B002B3FF428AF199BD8
:106140009C42BFF622AF2B680134039ADB6D4AF8FC
:1061500022301CE7906A026000000000043E0260EA
:106160002DE9F04F91B0840705460E46009302F0EA
:106170000403DDF868800293C2F3C203039203F1C3
:106180000103059340F0BA81041D30B1072909D8F5
:106190006FF01B0011B0BDE8F08F01F0070634442A
:1061A000C6F10806009B4FF000094FF0040A591E83
:1061B0004FF0FF334F46CB4601935346CDF8109036
:1061C0000DB1009820600598002800F3E8809848F9
:1061D000009A824203D397488242C0F0E080039A3B
:1061E000A4EB050E92074FEA9E0000F103810F2FEA
:1061F00000F2B180002D00F0058107F140020DEBA7
:10620000020C019A0CF8200C0CF8102C04980130A8
:106210000490E7E07A285DD84B280ED8472859D853
:1062200029282DD8252852D054D820287AD0233890
:10623000D0F1000B4BEB000B74E04C382E2849D802
:10624000DFE800F07048484848484848484848480F
:106250004B484848484848484859484B4B59595971
:10626000704B6D487048184B184848827F4B48481F
:106270004B487F0000204FF0000B4FF0040A38E03D
:106280002A380122C0B202FA00F010EA0E0F49D1FA
:1062900010F0625C2FD110EA020B43D06046013C43
:1062A0005444B4FBFAF40AFB04F4002D61D0A3EBD0
:1062B000050CA444B4453FF66BAF002868D1042B0D
:1062C00047D158F8043B2360043404232AE0019AA0
:1062D000013A01924FF0000B24E011F8010C6C28F8
:1062E00034D111F8023C00206C2B8346C5D14FF00D
:1062F000080A5346D3E708F10708073428F00708CF
:1063000024F00704F8E802AB35B106982044B04207
:106310003FF63EAFC4E900AB08344FF0000B4FF03E
:10632000080A534611F8010F002878D0BBF1000F7E
:106330007FF470AF2528F5D1019B4FF0010B01339D
:1063400001934FF0040AECE7584694E70020834697
:10635000A5E7082B02D06FF015001BE708F107082E
:1063600028F00708B8EC027B84ED007B0834082392
:10637000D8E768B9042B02D108F10408A4E7082B78
:10638000E9D108F1070828F0070808F10808EDE747
:1063900005980138059058F8040B009010E7039A0F
:1063A000900720D5A4EB050E4FF0010C4FEA9E009C
:1063B000BEF5007FCFD20F2FCDD8F5B107F1400247
:1063C000C0B20DEB020E019A0EF8200C0EF8102C44
:1063D000BCF1000F3FF41AAF60F07F0009F1010932
:1063E0000EF8200C0137C5F1080204344FF6DA7EAE
:1063F000069297E74FF0000CDAE7BCF1000F01D0EE
:106400000136EFE7029A0236002AEBD10098CDE977
:106410000631FBF7D1FF0644DDE90631E2E7631BF5
:10642000B3F5806F97D23DB9A6F10804E018B1E644
:106430000CFB0160FC6C02609B08029A28602B70C8
:106440009DF81030C2B1EB7085F80290B9F1000FE1
:1064500005D008A80022C5F1010C97420ED1C5F164
:1064600001030DF120084FF0000A0DF1300B0193EC
:10647000574512D1601B8DE66B70E5E710F8013BC4
:10648000190608D50CEB040E03F07F03B6453FF662
:106490007FAE04F8013B0132DFE7B9F1000F03D012
:1064A00098F90020002A17DB029BD3B11AF80B20C1
:1064B00004F8012B0022019B18191044B0423FF64A
:1064C00067AE98F80000009904F8010B204603928B
:1064D00019F08AF8039A14440AF1010A08F1010834
:1064E000C6E798F8002055F822300093029B0098E8
:1064F00045F82230FBF760FF421CDCE76FF00D002F
:1065000048E600BF2DE9F04F97B00446894600AF3A
:1065100090F802A0D7F880B03B62CBF3C003FA62D8
:10652000BB6141B9457800780AEB800020444D45B5
:1065300017D8A0EB0409E378FB61BAF1000F02D091
:106540001BF0010F16D1FB6953BBFB6A1BB13A6A02
:106550004946204698474D4628465C37BD46BDE82B
:10656000F08F461C09F101093046FBF725FF013089
:106570003044DCE72378626899007A62FA6A7961CC
:1065800004EB8301002A40F004814D460E4601EBE6
:106590000A094FF000084E4550D101EB0A0610E001
:1065A0001BF0020FD1D023789A0004EB83017A61AB
:1065B00062687A62FA6A002A7BD14D4601EB0A06CC
:1065C00090461BF0050F0CBF02230123FB62FB6901
:1065D00006EB430A0BF00203BB625645BCD016F82B
:1065E000021B16F8013C54F823909B4B994502D3AB
:1065F0009A4B99453AD3BB69002B44D0786A11F085
:106600005EF900283FD09648036813F0060F13D0B8
:10661000E9468AB06A46934B53617B6AC2E9063108
:106620004FF400731384904B42F8103F00234FF453
:10663000125100F097FDCD46023DCEE716F8013B22
:10664000F96254F82300FBF7B7FED7F88430013025
:10665000F96A4BB1D7F8883098453EBFD7F88430F7
:1066600023F8180008F10108054494E7BB6923B139
:10667000786A11F024F90028C5D11BF0010F05D16B
:10668000FB6AED1AA9E7BB6A002BA6D04846FBF7C8
:1066900093FED7F8843053B1D7F8883098453FBF80
:1066A000431CD7F8842022F8183008F1010805446B
:1066B00093E7BAF1000F72D01BF0040672D0D046F7
:1066C000002607F1480052463B61B96218F08CFF82
:1066D000B96A3B6901EB0A02F969BA62FA695200C8
:1066E000FA60BA6A02EB41023A610BF00202BA6048
:1066F0003A69B96A8A4257D11BF0020F62780CBF1F
:106700004FEA580100217A621BF0010F3244D2B2E5
:1067100040F09F801BF0040F14BF40460020BB6177
:106720006270A0702046E1703A6A7969FB6A984706
:10673000051EFFF611AFBB6941463A6A07F14800F2
:1067400023707B6A84F802A06370FB69E370FB6AC4
:106750009847B0F10008C0F2BB807B69A9EB0A0141
:106760003A6AC91AFB68C91AD7E90A039847002888
:10677000C0F2B080A8444FF0000B07F1380A08EBD4
:106780000005B34572D300213A6AFB6A0846984770
:10679000E2E656464FF0000807F1380093E7564608
:1067A000D04697E7B04695E7BA6A12F8021B12F88E
:1067B000015CBA6254F82500274A904202D3274A66
:1067C00090421ED3BA6932B1786A7B6011F077F8D3
:1067D0007B6800288CD1BA6802BB08F1280207F157
:1067E000300C08F1010008F10208944407F1580246
:1067F0005FFA88F852FA80F00CF8101C00F8105C70
:1068000076E7BA693AB1786A7B6011F058F87B682C
:1068100000287FF46DAF1BF0010F09D006F12802AC
:1068200007F13000711C161806F8205CCEB25FE745
:106830001BF0040F3FF45CAF08F1280207F13000B1
:1068400008F1010102EB000808F8105C5FFA81F81A
:106850004EE7002063E700BF0CFB0160FC6C0260A8
:1068600070262820153E0260040000011BF80A3043
:1068700054F8239087F83730D7F884302BB3D7F803
:1068800088309B4521D2D7F8843033F81B803A6A90
:10689000012107F13700FB6A984700281ADB0544FD
:1068A000B8F1000F06D14846FBF786FD00F101085C
:1068B0001FFA88F83A6A41464846FB6A984700281A
:1068C00008DB05440BF1010B5BE74FF00008DEE746
:1068D000454641E605463FE6014B1860704700BF5C
:1068E000B021282080B505460E46174698460DF083
:1068F00023FCDFF82090034619F0FEF804464246D8
:1069000049F8003039463046A84754F8090003F0EA
:106910000FFC00BF0800000038B503F03DFE03F097
:106920000DFE3A4B3A4A1A604FF40042394B1A6056
:10693000394B9A6922F4405242F480529A615A6962
:1069400042F000725A619A6C9006FCD4334AD368C4
:1069500023F01F0343F01303D3601368002BFCDA0A
:106960002F480AF091FF2C4B1A6922F0070242F0DF
:1069700001021A619A6CD103FCD45A6922F4E052E4
:106980005A61254B9A6C9207FCD45A69224C42F406
:1069900040725A619A6942F440229A615A6922F01F
:1069A00000725A61A56C15F02005FBD1636A284678
:1069B0001C4923F040036362636A23F03F03636270
:1069C0000AF0A6FF174928460AF036FF1821284684
:1069D0000BF0C6F8636A23F4605343F40063636208
:1069E000E36943F48033E3610B4B03F1800252E827
:1069F000002F42F00C0203F1800040E80021002942
:106A0000F3D15A6D22F003025A6538BD78C62820AA
:106A100000366E0174C6282000C00F4000000840F8
:106A20002008026000389C1C08B50BF065FA044B86
:106A3000044A5A641A6C42F004021A6408BD00BF8A
:106A400000C00A4055FAAF552DE9F0470446074605
:106A50004FF00109DFF8508014B93846BDE8F087DF
:106A600094FAA4F5B5FA85F509FA05F32E0108EBB9
:106A700005156FEA030A24EA03042B7B002BEBD0F5
:106A800058F806301B694BB946440422284607EAE9
:106A90000A077368196800F025FBDDE72846984768
:106AA0000028D9D1F0E700BF2803026030B50022EA
:106AB00089B00F490F4818F002FC0022002300247F
:106AC0000D4D0E4928460094CDE906230E234FF4C0
:106AD0005072CDE90334CDE90144094B0DF004F8BF
:106AE000084928460CF02CFF204609B030BD00BFF5
:106AF000096B006020B1282020AC282080DA2820F3
:106B0000296E0060DF3E026001480CF0D7BC00BF78
:106B1000CC2728202DE9F04780461E480F4611F06B
:106B20001BFA064678B300252846BDE8F087237B8C
:106B30006BB12368DB680BB12046984723681B695B
:106B4000CBB9636804222046196800F0CBFA0136FD
:106B500010344C45EBD3B8F1000FE5D0002DE2D056
:106B60002846FFF771FF0546002FF7D0002164206B
:106B70000DF0C6FAF2E7204698470028E1D00AFA5D
:106B800006F31D43E3E7044C0546DFF810904FF091
:106B9000010ADEE734BF28202803026038030260C0
:106BA00008B5034608462BB1044A136000F07EFD89
:106BB000002008BD6FF01500FBE700BFB4212820BE
:106BC00010B5044C237813B903480CF077FC01236B
:106BD000237010BDB4D82820CC27282010B5044637
:106BE0000B4811F0B9F95CB10A4BBFF35B8F53E866
:106BF000001F013943E80012002AF8D1BFF35B8F70
:106C0000054818F068FB0548BDE810400CF056BC7C
:106C10002CBF282030BF282020B12820CC272820B6
:106C20000020064BBFF35B8F014653E8000F43E89B
:106C30000012002AF9D1BFF35B8F70472CBF2820C8
:106C400070B5FFF7EDFF084C0546084EB44200D37F
:106C500070BD63685B792BB123685B6813B129460B
:106C6000204698471034F1E7280302603803026099
:106C700010B5044C0449204610F04FFF034B1C6034
:106C800010BD00BF2C2628205408026024BF2820F5
:106C900008B5094A00234FF47A7108481370084A6E
:106CA0001360084A1360FFF77BFFFFF7E1FFBDE8C1
:106CB000084000F067B900BFB5D82820737F016095
:106CC0002CBF282030BF2820014600220023014885
:106CD00010F044BF2C262820014810F0DABF00BF76
:106CE0002C262820024B0146186811F026B800BF58
:106CF00024BF2820014811F05BB800BF2C262820B3
:106D0000324B2DE9F041187800285DD0FFF7E4FF01
:106D1000044698B12E4BBFF35B8F53E8001F013937
:106D200043E80012002AF8D12A4DBFF35B8FDFF849
:106D3000B080454526D32046FFF7D4FF264B274C8D
:106D40001B68002B12DD18F073FA0A220023FBF7F0
:106D500007FBD4E90032C01A40F2E93361EB0201CB
:106D6000984271F1000101D3FFF76AFFD4E90032C4
:106D700013F57A7342F10002C4E90032BDE8F04134
:106D8000FFF7B8BF6B685B793BB121784B0706D53D
:106D90002B68214628461B6898471035C9E7268886
:106DA0002046C1F3C20700F0BDFAC6F382160246C0
:106DB000002EEDD00028EBDB01233946284600F0F9
:106DC000ABF9B042E9D3E3E7BDE8F081B4D82820BD
:106DD00030BF2820280302602CBF282018B12820AB
:106DE0003803026070B50D4D297861B90C4C012053
:106DF0000C4EFFF78FFEB44206D3FFF781FF002849
:106E0000FBD101232B7070BD63685B791BB12368D4
:106E100020469B6898471034EDE700BFB5D828207E
:106E2000280302603803026000212DE9F04708467C
:106E3000FFF770FE044658B34FF4FA784FF000099C
:106E40001C4B18F059FE1C4A1B58136033B11B4BE6
:106E50001B68092B02DD1A480CF030FB0025194F86
:106E6000DFF85CA044B12046FFF7EEFD044618B9F8
:106E70004FF0FF384FF0FF39FFF742FF064628B9C1
:106E8000B5B942464B4650460CF04EFB3546E9E755
:106E90004FF0FF384FF0FF39D2E72B689B691BB1E9
:106EA00000222846114698471035BD42F5D3E8E741
:106EB000054DFAE70800000028BF282030BF282031
:106EC000CC272820380302602803026013B5184835
:106ED00011F042F8174B1B7873B1EFF311841023B4
:106EE00083F31288BFF36F8FFFF70AFF84F31188D3
:106EF000BFF36F8F02B010BD0F4B1B68002BF9D092
:106F000050B9002200230D48CDE9002342F210724F
:106F100000230DF0D3FBEDE70928EBD1074818F06B
:106F2000DAF9074802B0BDE810400CF0C7BA00BF5C
:106F300030BF2820B5D8282028BF282020B12820FD
:106F4000CC272820064B10B504461B6898472146DD
:106F5000A060044810F07EFEBDE81040FFF7B6BF09
:106F6000B42128202C262820044A054B9B1AB1EB7B
:106F7000D30F34BF52F8310000207047280202605E
:106F8000280302600B4800210B4B1B1A043030B55C
:106F9000DB080A4C994200D130BD10F83120013194
:106FA000256802F0070225F007052A4344F8042B60
:106FB000F0E700BF28020260280302607026282044
:106FC000F8B50B4F06460B4D0024ED1BED08AC4207
:106FD00003D14FF0FF342046F8BD57F8340020B1FC
:106FE0003146FBF7D7F90028F5D00134EFE700BFB1
:106FF000280202602803026000282DE9F047884635
:1070000015461F461DDADFF8A8904FF0000A244EFF
:107010005446A6EB09063609B24509F1100902D11A
:107020002046BDE8F08759F80C0C3B462A464146FD
:1070300000790AF1010AFFF7DFFF844238BF0446F6
:10704000EAE7184B184AD21AB5EBD20F25D203EB58
:10705000C5031C79BC4228BF3C46C0B20722134E70
:10706000002100EB400056F82530824023EA02035D
:1070700004F0070282401343032223FA02F0033292
:1070800000F00700814238BF01461E2AF5D123F0E7
:1070900007030B4346F82530C2E70024DDE700BFB5
:1070A000380302602802026028030260702628204C
:1070B00028030260F8B5094D0646094B0F46002427
:1070C000ED1AED08AC4200D3F8BD22B201343B46C4
:1070D00000213046A4B210F067FFF3E728030260F6
:1070E0002802026038B50B4B0D4611464268C31AA0
:1070F00004461B110133137143689971FFF7DAFFDE
:10710000636801221D6063685A71BDE83840FFF76B
:1071100057BD00BF2803026070B14168097973B19F
:10712000002A17DBCBB20C4903EB430351F82200D2
:10713000D84000F0070070474FF0FF31EFE70749F4
:107140000748401AB2EBD00F3ABF01EBC2010879F1
:1071500018467047042070477026282028020260D5
:10716000280302602DE9F04F8FB0C1F34A280D4685
:10717000914604AF0C0DB8607B60B8F1000F67D08A
:10718000002607F114034FF0040B4FF00A0AC7F86A
:107190000C8032467E624846C7E90766019307F1D4
:1071A0001C03CDF808B0CDF800A0F968FFF7AAF9E4
:1071B000B0F5006F034620D32A48036813F0060F8A
:1071C00017D06C468AB0D9F8041004AB264D1A4685
:1071D000C3E9055140F2FF71D9614FF40071198480
:1071E000224B42F8103F4FF412513346FFF7BAFFDB
:1071F000A5462C37BD46BDE8F08FC0F30A0804F160
:1072000017003B60184468F3532520F007008008FE
:10721000FFF75AFD044690B13B6800F11001144A93
:107220004846F961C7E9083607F11403CDF808B0FC
:10723000CDE900A307F11C03F968FFF763F968F3D0
:1072400053257B68B96820462A4610F0D7FED0E760
:1072500004F1170020F007008008FFF735FD044611
:10726000EDE700BF84262820F43E02600400000100
:10727000D17F01602DE9F04F87B0044693469846D0
:107280000391DDE91279DDE9105ADFB13B46524640
:1072900010210020CDF80090CDF81490FEF760FF8B
:1072A000B0F5006F06460ED31C48036813F0060FB6
:1072B00030D040F2FF731A4A022107B0BDE8F04F08
:1072C00010F0F5BE3E4604F0070405F117000BF080
:1072D000070BE400304444EA8B1420F0070044EA32
:1072E0004624800844EA0554FFF7EEFC054640B109
:1072F0003FB13B46524631461030CDF80090FEF784
:107300002FFF434622460399284607B0BDE8F04FB9
:1073100010F074BE07B0BDE8F08F00BF84262820AF
:10732000333F0260406820B1034BC01A40F38F0026
:1073300070474FF0FF307047702628200EB403B519
:1073400003AB0146054853F8042B019303F0F6FA0A
:1073500002B05DF804EB03B0704700BF118101601B
:10736000CA0605D48B064CBF02490349FFF7E6BFA6
:10737000704700BF4B4302606B3F02602DE9F04F46
:107380008BB09B4604460D46169B90469DF854A034
:107390000693179B199E0593189B0493BAF1000F4F
:1073A00000F09E8006F0010306F00209089306F043
:1073B0000803079306F48073099310F0F3FD024667
:1073C00000283BD08F492046FFF7B8FF0746B9F1A8
:1073D000000F08D016F0440F32D12A468A492046C1
:1073E000FFF7ACFF0744089B53B1884B2046884900
:1073F00053F82A20874B002A08BF1A46FFF79EFF42
:10740000099B002B48D0079B002B62D1B8F1000FDD
:1074100064D0424680492046FFF790FF0546069B10
:107420003D44002B6BD1049B002B71D1F30700F17D
:10743000E28031462046FFF793FFD6E00746C6E7D5
:10744000764B18680028CDD0754B4FF47A794FF4FD
:1074500061614FF03C0C1B68B5FBF3F5B5FBF0F335
:1074600000FB135509FB05F5B3FBF1F2B5FBF0FE8C
:1074700001FB123100FB1E55B1FBFCF309FB05F5C6
:107480000CFB1311B5FBF0F5009120466549CDE9E1
:1074900001E5FFF753FFA5E7079BEBB1624B2046E1
:1074A000624953F82A20FFF749FF0546B8F1000F5B
:1074B00005D0424658492046FFF740FF0544BBF13E
:1074C000000FACD05A465A492046FFF737FF054413
:1074D000A5E74FF0000BE1E7079DE7E745469EE78C
:1074E000BBF1010F069B06D1002B64D1049B002B3E
:1074F0007BD000250CE0002BF8D04E485CE04E48D5
:10750000069B22464D4910F0A9F9049B002B68D038
:10751000DFF83881DFF83891049F4FF0000B3146D7
:107520002046102F28BF1027FFF71AFF5D4545DCC6
:10753000059B4FF0010B494620461A78FFF7FEFEE7
:107540001BF0070F03D141462046FFF7F7FE5F45CA
:107550003BD9059B4946204613F80B20FFF7EEFE6A
:107560000BF1010BBBF1100FEAD14FF0000B3449C6
:107570002046FFF7E3FE5A46059B20469A5CA2F19F
:1075800020015F292F4928BF2E22FFF7D7FE0BF1DC
:10759000010BBBF1100F1DD01BF0070F03D14146AB
:1075A0002046FFF7CBFE5F455A46E5D841462046C8
:1075B000FFF7C4FEEBE720485546A1E741462046C9
:1075C0000BF1010BFFF7BAFEB0E71F492046FFF7AA
:1075D000B5FEC5E7059B3B440593049BDB1B049369
:1075E0009AD1BAF1000F7FF421AF20460BB0BDE86D
:1075F000F04F10F080BD074A20460549FFF79EFE78
:1076000017E700BF733F0260773F026068080260BF
:107610002F4402606E3F02609C3F02603CBF282006
:1076200038BF2820803F02607C080260A03F0260D3
:107630000037026047810160118101603DA900604F
:10764000AC3F0260374A02608E6A0260906A026054
:10765000A63F026042F20F73114A8B4273B5044693
:1076600028BF0B460568052168460DF005F96368DB
:1076700006460B2228465B680A4910F02EFD636817
:107680003246694628465B6810F027FD63681B2276
:1076900005495B68284610F020FD02B070BD00BFB0
:1076A000ED5E0260CA3F0260AE3F0260002101232E
:1076B000064A904206D8064A01B901231360054BD9
:1076C00018607047400801215B00F2E740420F005C
:1076D00038BF28203CBF2820014B036000207047A2
:1076E000900802602DE9F8430646FAF765FE054664
:1076F000EFF31188102383F31288BFF36F8F114BC0
:107700001C68D3F804909C4208BF002434B988F365
:107710001188BFF36F8F2046BDE8F883A76838460D
:10772000FAF74AFEA84206D12A463946304617F0F3
:10773000AFFF0028EBD04C4501D02468E6E70024D9
:10774000E5E700BFB82128202DE9F0410E46154697
:10775000FFF7C8FF044640B3C36833B31F6927B3BC
:10776000062E07D0072E23D02A4631463B46BDE8D9
:10777000F0411847838A3BB92A463146B84750B989
:10778000A38A0133A38206E04FF6FF72934204D02E
:107790000133A3820020BDE8F081164803685B072F
:1077A00003D0154A012110F079FC6FF01500F2E7C3
:1077B00045B12A7832B10022314682822A461B69BD
:1077C0009847E7E7A38A012B08D12A4607212046DC
:1077D000B8470028DFD1A38A013BD3E70BB1013BB7
:1077E000D7E70448036813F0060FDED0034A0221EE
:1077F000D9E700BF78262820F63F026018400260D3
:1078000010B5044608B1806850B9134803685A0798
:1078100003D0124A012110F041FC6FF0150010BD99
:10782000FFF760FF28B10C4803685B07F5D00C4AEE
:10783000F0E7A082EFF31181102383F31288BFF3E6
:107840006F8F084B5A68C4E9003214605C6081F3A2
:107850001188BFF36F8FE2E7782628203640026058
:107860004F400260B821282010B5044608F030F9D6
:1078700003490246204610F09AFE002010BD00BFCA
:107880008F40026037B51346002205460A21019257
:1078900001AA586801F0D4FB019C4CB920EAE070C1
:1078A0000A2180FB01010CF02BFC204603B030BD07
:1078B00022460349284610F096FE019CF5E700BFDA
:1078C000BB400260034A044908B510F070FE002076
:1078D00008BD00BFA8410260AE4102602DE9F3413E
:1078E00017460023044601AA0A21B868019301F053
:1078F000A7FB019DC6B24DB12A461449204610F09F
:1079000072FE019D284602B0BDE8F081042E09D91F
:1079100032460F492046012510F065FE204610F042
:107920009DFEEFE77868FFF74BFBB0F1000804DA43
:107930007A682046074910F056FE002133460FFAB8
:1079400088F2084610F030FBDCE700BFD14102604E
:10795000F84102600F42026010B5044608F09AF840
:1079600007490246204610F022FE2046054910F045
:107970001EFE214604480CF09BFC002010BD00BFF9
:107980006E4202608D4202608D79006070B58EB0EB
:1079900004460D46D0F89C6017F005FB224A0346CA
:1079A00018F0AAF81058214A2149002B18BF1A468E
:1079B000234600921F4A844218BF0A4628461E49A1
:1079C00010F0F5FD28461D49D4E90A23CDE900232E
:1079D00094F90E30227B10F0EAFD06A92022204601
:1079E0000BF0BEFF636E02461549284610F0DFFD1E
:1079F00005A9204617F0E7FA024628B111492846A2
:107A000010F0D5FD0EB070BD059B64222846F11A1A
:107A10004A4300910C49B2FBF6F2CDE901623246CD
:107A200010F0C5FDEEE700BF0800000097420260BD
:107A3000906A0260FF5402609A420260A6420260AD
:107A4000D2420260E942026016430260F0B591B092
:107A5000002504461C2208AF294609A8154E17F038
:107A6000EBFD1A222021384617F0E6FD2146124888
:107A70000CF01EFC07AA4FF40461304617F097FA89
:107A8000079964234FF40462C1F504604343B3FBD8
