:0200000460009A
:10000000464346420004015600000000010303007D
:1000100000000000000000000000000000000000E0
:1000200000000000000000000000000000000000D0
:1000300000000000000000000000000000000000C0
:1000400000000000000406000000000000000000A6
:100050000000800000000000000000000000000020
:100060000000000000000000000000000000000090
:100070000000000000000000000000000000000080
:10008000EB04180A063204260000000000000000FD
:100090000000000000000000000000000000000060
:1000A0000000000000000000000000000000000050
:1000B0000000000000000000000000000000000040
:1000C0000000000000000000000000000000000030
:1000D0000000000000000000000000000000000020
:1000E0000000000000000000000000000000000010
:1000F0000000000000000000000000000000000000
:1001000000000000000000000000000000000000EF
:1001100000000000000000000000000000000000DF
:1001200000000000000000000000000000000000CF
:1001300000000000000000000000000000000000BF
:1001400000000000000000000000000000000000AF
:10015000000000000000000000000000000000009F
:10016000000000000000000000000000000000008F
:10017000000000000000000000000000000000007F
:10018000000000000000000000000000000000006F
:10019000000000000000000000000000000000005F
:1001A000000000000000000000000000000000004F
:1001B000000000000000000000000000000000003F
:1001C000000100000010000000000000000000001E
:1001D000000004000000000000000000000000001B
:1001E000000000000000000000000000000000000F
:1001F00000000000000000000000000000000000FF
:1002000000000000000000000000000000000000EE
:1002100000000000000000000000000000000000DE
:10100000D10020410020006000000000000000002E
:1010100020100060001000600000000000000000D0
:1010200000000060A07B020000000000FFFFFFFF47
:1010300000000000000000000000000000000000B0
:1010400000000000000000000000000000000000A0
:101050000000000000000000000000000000000090
:101060000000000000000000000000000000000080
:1020000000B429209DA100600598016081A10060B5
:1020100081A1006081A1006081A10060000000003A
:10202000000000000000000000000000DDA20060D1
:1020300081A100600000000039A2006011FB006077
:10204000C1A50060C1A50060C1A50060C1A5006078
:10205000C1A50060C1A50060C1A50060C1A5006068
:10206000C1A50060C1A50060C1A50060C1A5006058
:10207000C1A50060C1A50060C1A50060C1A5006048
:1022C0007BB972B90029BEBF00204FF0004106E083
:1022D00008BF00281CBF6FF000414FF0FF3000F036
:1022E00057B8ADF1080C6DE904CE002909DB002BCD
:1022F0001ADB00F069F8DDF804E0DDE9022304B040
:102300007047404261EB4101002B1BDB00F05CF8A1
:10231000DDF804E0DDE9022304B0404261EB410155
:10232000524263EB43037047524263EB430300F0B6
:102330004BF8DDF804E0DDE9022304B0404261EB34
:1023400041017047524263EB430300F03DF8DDF872
:1023500004E0DDE9022304B0524263EB430370471B
:1023600053B94AB9002908BF00281CBF4FF0FF31FC
:102370004FF0FF3000F00CB8ADF1080C6DE904CE61
:1023800000F022F8DDF804E0DDE9022304B0704734
:10239000704700BF10F8012B11F8013B012A28BF3C
:1023A0009A42F7D0D01A7047034611F8012B03F870
:1023B000012B002AF9D17047034613F8012B002A9C
:1023C000FBD1181A013870472DE9F04786468C4634
:1023D0000846089E154674461946002B40F0C280F8
:1023E0008542B2FA82F245D94AB1C2F1200300FA1D
:1023F00002FC2EFA03F3954043EA0C0C94404FEA9A
:10240000154EA8B2BCFBFEF8230C0EFB18CC08FB43
:1024100000F943EA0C43994528D9EB1808F1FF3736
:1024200004D2994502D9A8F102072B44A3EB090372
:10243000A4B2B3FBFEFC0EFB1C330CFB00F044EA21
:102440000344A04214D92C190CF1FF3304D2A0424A
:1024500002D9ACF102032C44241A43EA07401EB10E
:10246000D440002334607360BDE8F0874746DDE761
:102470006346F1E792BB431B01214FEA154EAFB211
:10248000B3FBFEFC200C0EFB1C330CFB07F840EAF0
:102490000343984562D9EB180CF1FF3004D29845FC
:1024A00002D9ACF102002B44A3EB0803A4B2B3FBA6
:1024B000FEFC0EFB1C330CFB07F744EA0344A74267
:1024C0004ED92C190CF1FF3304D2A74202D9ACF13A
:1024D00002032C44E41B43EA0040C0E7C2F120039E
:1024E00020FA03F1954090402EFA03F303434FEA9C
:1024F000154EAFB2B1FBFEFC0EFB1C10190C0CFB11
:1025000007F841EA0041884504FA02F422D9691823
:102510000CF1FF3004D2884502D9ACF10200294405
:10252000A1EB08019BB2B1FBFEFC0EFB1C110CFBE6
:1025300007F743EA01439F420ED9EB180CF1FF3134
:1025400004D29F4202D9ACF102012B44DB1B41EAC9
:10255000004192E76046E3E76146F7E76046A3E79C
:102560006346B7E7834206D916B9002108467BE7E0
:10257000C6E900E0F9E7B3FA83F78FB9834201D3E4
:10258000724508D8BEEB020460EB030301209C46B1
:102590001EB9002168E73846FAE7C6E9004CF8E7BB
:1025A000C7F1200CBB4022FA0CF41C432EFA0CF1AC
:1025B00020FA0CF3B84001434FEA14490EFA07F52C
:1025C000B3FBF9F81FFA84FE09FB18300B0C08FB6B
:1025D0000EFA43EA00439A4502FA07F240D9E3189B
:1025E00008F1FF3004D29A4502D9A8F10200234431
:1025F000A3EB0A0389B2B3FBF9F809FB183308FB14
:102600000EFE41EA03418E452CD9611808F1FF33D3
:1026100004D28E4502D9A8F10203214443EA0040C6
:10262000A0FB0298A1EB0E014145CE46434602D3E2
:1026300006D14D4504D2B9EB020E68EB0403013814
:10264000002EA6D0B5EB0E0261EB030101FA0CFCE3
:1026500022FA07F34CEA0303F940C6E9003198E790
:102660004046C5E74346D9E72DE9F047044688B020
:10267000884617461CF0CFFE0A220023FFF770FEA3
:10268000B8F1010F06460D4607D102460B4620461B
:10269000274916F078F8002011E07F682548394670
:1026A000FFF778FE70B139462348FFF773FE48B153
:1026B00020463A46214916F082F86FF0040008B02F
:1026C000BDE8F0873046294617A3D3E90023FFF77A
:1026D000F7FD06460D4610461946194A0023FFF736
:1026E000EFFD80460F46104619464EF66022002345
:1026F000FFF7E6FD82468946104619464FF47A7286
:102700000023FFF7DDFDCDE902A9CDE90623CDE9E0
:10271000040132462B460B492046CDE9008716F0CE
:1027200032F8B8E7AFF30080005C26050000000037
:10273000144302605D330260254302602E43026051
:1027400080EE3600464302602DE9F04F2DED028BFE
:10275000ADB00E46D0F804A000210DF1680909AC17
:10276000D0F8108007461546484624221DF057F839
:102770001422002120461DF052F8F36901933368BA
:102780002BB94FF6FF71DAF800001BF0C8FDB369F2
:10279000326803F00F0370681A928DF87130336A53
:1027A0001B90591CCDF818901BBF23EAE3730A2134
:1027B000194683FB0131CDE91031002D7AD06B68C9
:1027C000192A0A93AB680B9310D8052A12D9063A36
:1027D000132A0FD8DFE802F0670E670E0E0E0E0EFA
:1027E000670E0E5B5F0E0E0E670E1115332A5AD060
:1027F000352A5BD06FF0850495E001238DF82430F5
:1028000007E098F87B30062B4FF00103F6D18DF8E6
:1028100025302B690D936B690594581C4ED023EA23
:10282000E3730A2283FB023208F18009CDE91232F8
:1028300005AB0E93DDE91023484610F031FE044647
:10284000002840F0B28041F2883B9FED598B019BFC
:10285000002B06DB0EA9384619F0ACF9044678BB0C
:1028600000244846083610F093FE21AF1DAA1346F7
:10287000083603CBBB4246F8080C46F8041C1A463F
:10288000F5D1002D4FD0D8F85430EB604BE0012348
:102890008DF8243007E098F87B30062B4FF00103C9
:1028A000F6D18DF825302B690C93B4E700282B69FD
:1028B000FADAAFE72B462A460595B5E71A46B3E79D
:1028C000002D40D0DAF80020002124A8936B23F0DB
:1028D0008B5323F4F81323F033039363364ADAF867
:1028E00000301A6320221CF09AFF0C2314A93846EA
:1028F000239303238DF8943002238DF8953023AB76
:1029000008930023079307AB8DED168B14938DED81
:10291000188B19F04FF9BBF1000F0ADC6FF073044C
:10292000484610F035FE20462DB0BDEC028BBDE8C8
:10293000F08F384619F007F828B17D20ABF17D0BF8
:102940001CF0C6F9E7E714F10B0F12D198F87B30B1
:102950005A1F012A02D9093B012B0AD8384619F01F
:1029600076F9044600283FF47BAF484610F010FE8D
:10297000D9E77B681868426AD107029206D56422BB
:102980004FF0007103931BF04FFC039B1868029BF0
:102990009A0702D4436D1B0703D0642202211BF067
:1029A00043FC019B013B019351E76FF00F04BAE731
:1029B00050C300000000000033007F110000000041
:1029C0002DE9F84F2DED028B81468846002219F83B
:1029D0000230202B02F1010100F0A381A3F10900D4
:1029E000042840F29E812B2B0D4633D02D2B36D060
:1029F0001846042440F02003692B32D06E2B61D09E
:102A000000224FF00A0A964694461346114614F4E3
:102A100000666CD040F02007A7F1610BBBF1050FF9
:102A200065D8573FFFB2BA4540F3F58044F08006C1
:102A3000E005B6B269D5F40506F400707AD5002F2A
:102A400018BF4CF0010C00B9013219F805003446EA
:102A50000135DCE7042419F80100951CCAE7442479
:102A6000F9E79FEDB18BB64B13F8011B51B119F883
:102A7000052042F020028A4205F1010026D0B14A29
:102A8000934230D1B4EE488BF1EE10FA0AD019F827
:102A90000530282B06D1013519F80530292B05F111
:102AA000010515D1630601D5B1EE488BB8F1000FD1
:102AB00002D04D44C8F80050B0EE480BBDEC028B7C
:102AC000BDE8F88F9FED9A8B9F4BCDE70546CBE78E
:102AD00023F02002413A192ADED9A3F13002092A53
:102AE000DAD95F2BD8D09FED948B0025DEE7A0F1DB
:102AF0003007FFB257452DDA44F0800614F4807099
:102B0000B6B298D1BAF10A0F06D0BEF10F0F92DD1E
:102B100044F4C076B6B28EE7BEF1100F8BDD44F4FC
:102B2000C076042FB6B286D9052F08BF07464FF0EE
:102B3000020C80E700B1013AAAFB0334FB180AFB40
:102B4000014444F1000153EA01003FF47EAF0EF16D
:102B5000010E7AE7FE2F5ED1A70558D52006C2D513
:102B6000002E40F09B8053EA010005F1FF3500F094
:102B7000D580200540F1B6803632B1F5800FC0F027
:102B80009680724FB1F5000F80F09580BA42C0F286
:102B900092804CEA030303F00306032E084604D098
:102BA00003F00606062E40F08F80043341F100004A
:102BB000B0F5000FC0F088800132B2F5806F80F26E
:102BC000AA8000234FF4801102F2FF3221F4801119
:102BD0001E4641EA025747EC186BB0EE480B13F063
:102BE000D7FB0138022804D81DF078F8584B222270
:102BF0001A50B0EE480B13F0CBFB013802283FF619
:102C000051AF1DF06BF8524B22221A504AE744F4A0
:102C10000076B6B219E740F02000782804F080076B
:102C200009D147B153EA010A05D144F40066B6B2AE
:102C30004FF0100A09E7002F3FF455AF86B392001A
:102C4000702686428FD119F805002B2805F1010660
:102C500004D02D2826D144F48064A4B219F80600CB
:102C6000A0F13006092E3FF67EAFAE1C354640F28D
:102C7000D34A00264FF00A0B5645DCBF30380BFB19
:102C8000060619F80500A0F13007092F05F1010526
:102C9000F2D9670548BF7642324464E72E20CEE77A
:102CA0006526CEE7A0F13007092FDFD95BE7DB18F7
:102CB0004941013A61E75E0846EAC17603F0010343
:102CC0003343490801325DE7B2F5806F23DA9B0890
:102CD000B0F5800F43EA80734FEA9001BFF474AF00
:102CE000002275E70EEB020010F5A27F10DDB0F5B3
:102CF0009B7F10DA03F0010040EA0C0001308008ED
:102D0000181841F1000100F027F8B0EE408B70E791
:102D10009FED098B6DE79FED048B6AE79FED068BB6
:102D2000C0E60A4653E600BF000000000000F07F46
:102D3000000000000000F87F00000000000000001C
:102D40005D6F0260606F02605A6F026002FCFFFFFD
:102D50000C000000000000002DE9FF4780461646E9
:102D60000F46002900F0A280B1FA81F4341B002E36
:102D700004F10A04C0F2A280304612F063FF04445A
:102D8000304612F065FFA4EB060905466946304659
:102D900012F086FFA9EB05037D336A4640463946AB
:102DA0001CF0D5FDA64282460D4600F38380B9F1A2
:102DB0003F0F00F381804FF0FF33A9F1200003FAA9
:102DC00000F003FA09F2C9F12001024323FA01F1EC
:102DD0000A4303FA09F328EA030327EA020213432A
:102DE0000CBF01200020002D00F08A80B5FA85F389
:102DF000E31A03F23E4340F2FE72934200F38980ED
:102E0000002B23EAE376CCBF32460122121BA2F24A
:102E10003341C1F1200CA2F23447A2F253442AFA02
:102E200001F305FA0CFC43EA0C0325FA04F4C7F19C
:102E3000200EA2F2544C234305FA0EFE2AFA07F4A0
:102E400025FA0CFC44EA0E0444EA0C0414F0010FC9
:102E500025FA01F1C7F1200CA2F2544254D0A8B1D6
:102E60004FF0FF3000FA02F200FA07F4144320FAA0
:102E70000CF2B84014432AEA000A03F0010225EAE2
:102E800004054AEA020A5AEA050A3DD0013341F133
:102E90000002C2F3130253EA020138D0184642EA94
:102EA000065141EC100B04B0BDE8F087B0FA80F495
:102EB00020345BE7012096E7002094E7C6F1000983
:102EC000484612F0C5FE241A484612F0C1FEA61B61
:102ED0000546694648462E4412F056FF06F17C032B
:102EE0006A46404639461CF032FD82460D46404651
:102EF000394612F0BDFE81458CBF0020012072E7EB
:102F0000BAFA8AF3203373E7C1F31302C6E7013636
:102F1000C4E79FED010BC6E7000000000000F07F52
:102F2000F8B510EE903A33F000472DED028B10EE1D
:102F3000102A0DD182F48002520012F5000F40F2E7
:102F4000168270EE207ABDEC028BB0EE670AF8BDF7
:102F500022F00040B0F1FF4F02D8B7F1FF4F08D97F
:102F6000B2F17E5FEDD183F480035B0013F5000FB7
:102F7000E5E7002A06462DDAB7F1974F0CD3B7F1F3
:102F8000FF4F2AD00221B3F17C5F3ED1002AC0F26C
:102F90008C80F1EEC07AD6E7B7F17E5F2ED3FC15B8
:102FA000C4F1960447FA04F101FA04F4BC423AD1A0
:102FB000B7F17E5F47D1002B80F2DF81B5EE400A8A
:102FC000F1EE10FA4DD1D00FBDEC028BBDE8F84008
:102FD00013F066BAB7F1FF4F3AD1B0F17E5F00F05F
:102FE000C68105D9DFEDCC7A002B60FEA77AAAE76F
:102FF000002B80F2BF81F1EE607AA4E7B3F1804F3D
:1030000034D0B3F17C5F5CD0002122F04044B4F1B5
:103010007E5FF0EEC07A3FD1002BBCBFB7EE007AE6
:10302000C7EE277A29E0B7F17E5FC4D00021B3F163
:10303000804FEAD1B0F1BF4F1AD2B0F1D05F29D999
:1030400060EE007A7FE701F00101C1F10201EEE7D5
:10305000B7F17E5FAFD0B3F1804F4FF00001E9D000
:1030600091E7B7EE007AC7EE007A6CE70021E1E75E
:10307000B0F1FF4FF0EEC07A34D1002ABFF663AF53
:10308000A0F17E50084316D1BDEC028BBDE8F8409C
:1030900013F014BAF0EEC07A20BB002B1EDA002A1F
:1030A00092DA4B1E584258418EE7B0F1FF4FF0EED6
:1030B000C07A40F0658101297FF445AFF1EE677A6F
:1030C00041E7B0F1FF4FF0EEC07A3FF43CAFB0F112
:1030D0007E5FD9D000283FF436AFD5E7012940FE06
:1030E000277A30E7D50F013D51EA0504CCD0B7F17E
:1030F0009A4F40F25181894A904208D8002B0BDA4E
:103100000020BDEC028BBDE8F84013F0BBB9844A47
:10311000904208D9002BF3DC0020BDEC028BBDE807
:10312000F84013F0A1B99FED7A5BB7EE007A77EE25
:10313000C77AB7EEC55BB5EE007A07EEC75AB6EEB2
:10314000007A05EE677A27EEA76ADFED766A27EE4A
:10315000067A9FED756A27EE067A9FED746A17EE80
:10316000867A67EEA66A76EE877A17EE902A22F4C0
:103170007F6222F00F0207EE902A77EEE66A77EE82
:10318000667A23F47F6323F00F030139B7EE007AE8
:10319000BFEE008A294308FE078A07EE103A30EE98
:1031A000C77A67EEA00A07EE902A47EE270A07EED5
:1031B000103A67EE877A30EEA77A17EE101A0029D8
:1031C00021F000431ADDB3F1864F09D9B5EEC08A6C
:1031D000F1EE10FA4CBF0120002092E70126FCE03E
:1031E00020D1DFED536A37EE677A70EEA66AF4EE0F
:1031F000C76AF1EE10FAE9DC862318E04D4A9342E3
:1032000007D9B5EEC08AF1EE10FA4CBF01200020BC
:1032100083E707D137EE677AB4EEE07AF1EE10FA81
:10322000EADBEEE7B3F17C5F40F29C80DB157E3B8E
:103230004FF4000018410844C0F3C7533E4A7F3B97
:103240001A41024007EE102AC0F3160040F40000B5
:10325000C3F117031841002977EEC77AB8BF40427F
:1032600037EEA07ADFED356ADFED355A9FED356A2E
:1032700017EE103A23F47F6323F00F0307EE103AA2
:1032800077EE677A67EE266A70EEE70ADFED2E7A50
:1032900067EE277A9FED2D7A40EE877AB7EE000A27
:1032A00036EEA77A77EE666A77EEE67A67EE076A19
:1032B00047EE277A16EEA56ADFED255A46EE265A26
:1032C0009FED246A15EEA66ADFED235A46EE265AD4
:1032D000B0EE476A05EEE66AF0EE006A67EE065A5F
:1032E00036EE666AC5EE866A76EEE77A77EEC77ADC
:1032F00030EE670A10EE103A03EBC053B3F5000F3F
:1033000032DA13F06BF860EE087A1CE6AFF3008057
:10331000E13D55555555D53F00000000F3FF7F3F77
:103320000700803F00AAB83F3BAAB83F70A5EC3623
:103330003CAA383300001643000080FF0072313F82
:103340004CBB31330EEADD358CBEBF351872313FD0
:1033500055B38A38610B363BABAA2A3E0000000009
:103360000000804B00207BE700EE103ACBE7F7EE41
:10337000007AE8E55FED077AE5E5F0EE407AE2E510
:10338000B0F17E5F3FF47CAE00283FF4A7AE002989
:103390003FF47AAE0221002512F0FF4F08BF1FED67
:1033A000107A5E4C02BF67EE877A6FF0170217EE55
:1033B000906A4FEAE65018BF00227F381044C6F3E7
:1033C0001602A24242F07E5706DD554CA2427FF71C
:1033D00005AF0130A7F500070026524A02EB86022E
:1033E000D2ED005A504A06EE107A75EE867AF7EE64
:1033F000006AC6EEA74A36EE657A27EE245A15EE25
:10340000104A144006EE904A484C04EA670444F01F
:10341000005404F5800404EB465407EE904A06EE8F
:10342000E77A77EEE57ADFED425A36EE676A65EEC7
:10343000057A06EE667A9FED3F6A47EE865A9FED63
:103440003E6A05EEA76ADFED3D5A46EE275A9FED2C
:103450003C6A05EEA76ADFED3B5A46EE275A27EE97
:10346000247A36EE856A67EEA77A26EE076A05EEBD
:10347000A76A66EEA64AF0EE085A74EEA57A77EED1
:10348000867A17EE904A144007EE904A77EEE55A96
:1034900027EE277A75EEE45A66EEA76A36EE656A7D
:1034A00006EE057A9FED286A76EE877A17EE904A47
:1034B000144007EE904A77EEE66A27EE866A37EE0A
:1034C000667ADFED226A224C67EEA67ADFED216A8A
:1034D00047EE267A04EB860494ED007A77EE877A3D
:1034E00007EE100A1C4800EB8600D0ED005A76EE7D
:1034F000276AB8EEC77A76EEA56A76EE876A16EE88
:10350000900A024006EE902A36EEC77A37EE657AC8
:1035100037EE467A77EEC77A33E600BF71C41C00F7
:10352000D6B35D009C2A026000F0FFFF00F0FFDFD1
:1035300055326C3E42F1533E05A38B3EABAAAA3EE8
:10354000B76DDB3E9A99193F0040763FC623F6B827
:103550008C2A02604F38763F942A026037B50446C1
:1035600000F050FF26490546204615F00CF94FF4AF
:1035700016722449204615F006F902F045F8224952
:103580000246204615F0FFF8AB69204A0A21B3FB3A
:10359000F2F2B2FBF1F001FB10221D49204600922D
:1035A0001C4AB3FBF2F36A6815F0EDF820234FF4E0
:1035B00080721949204615F0E6F8184B1B78CBB1FC
:1035C00017491848D1F82C51174B1849D3E9002353
:1035D000022D08BF01461648920A406842EA83520B
:1035E0009B0ACDE900101349204615F0CCF80020C5
:1035F00003B030BD1049204615F0C5F8F7E700BF0D
:1036000066320260783202608C320260A08601006D
:103610009C32026040420F00BB32026045282920E4
:10362000980C29205C320260300C29206132026043
:10363000380C2920E83202600933026070B51C465C
:1036400064230E46A0FB030103FB0611234614432B
:1036500004BF01220023FEF783FE0A4903460A2025
:103660000A68B3FBF0F4B2FBF0F2944209D0064AC8
:103670000B60106828B1054A0821BDE8704015F0BC
:1036800075B870BD78022920901E2920223302606F
:10369000B14B2DE9F04F2DED028BD5B01B780E46C6
:1036A000904606904BB9AD4915F089F86FF01200BD
:1036B00055B0BDEC028BBDE8F08F9FEDA98A0024C8
:1036C0002A230127F0EE488A4FF0800B8DF89040B6
:1036D0000793B7423ED3A34CF0EE480AA24DB0EE9A
:1036E000680A63680CA8A14E9B45D6F81811A8BFBC
:1036F0009B462B6803F1E043CDF824B003EB810235
:10370000CDE900320023079A02F05CFB9849069845
:10371000D6F818712D6815F036F8964B05F1E0458E
:103720001B7805EBC708002B78D06368012224A919
:103730009148CDE90083002302F068FC061E71DA8F
:1037400002F058F88D490246069815F038F86FF0E7
:103750001500ADE758F827A0BD00894907F1010918
:103760005046FEF717FE48B94E4529D945446868CA
:103770001CF060F8834609F10107AAE78149504629
:10378000FEF708FEE0B94E4506D9454468681CF0CE
:103790004EF8F7EEC08BEEE77B495046FEF7FAFD98
:1037A000E8B17A495046FEF7F5FD0146B8B94E45F5
:1037B00015D945440A22686811F0ECF90790DAE758
:1037C00071495046FEF7E6FD0028EAD14E4506D97C
:1037D000454468681CF02BF8B7EEC08BCBE7504629
:1037E000FEF7EAFDA31C05460344BF2B14D834B1F1
:1037F00004F5A873202201346B4403F8C02C24ABD9
:103800002A46514618192C441BF0E1FF002204F50A
:10381000A8736B4403F8C02CB946ACE7B36D01261E
:1038200045F8373032465A49069814F0ACFFA36D7C
:1038300055F837700A93E36DDFF830910B9313F06E
:103840009AF9002383468A461C46CDE90733099B33
:103850009C4269DB13F08FF9424BB0EB0B084D48EB
:103860004FF47A7B61EB0A0A84FB0001D3E9165618
:103870000A9BED1A0B9B66EB0306E317099358EAC4
:103880000A0315BF57460027424601223B460A92CB
:10389000FEF766FD8146A5FB0B010A9A3B460BFB32
:1038A0000611AD0AFEF75CFD4FF47A72002345EA7B
:1038B0008655FEF755FD38490746069814F063FF14
:1038C000079B0698B60A0493089B05936423B9FBEB
:1038D000F3F103FB1192CDE9008ACDE902122246F1
:1038E0002E4914F050FF0A226423002C2846B7FB0F
:1038F000F2F2B2FBF3F1B7FBFBF703FB1122099BDA
:10390000314608BF0023039214BF224601220297CA
:10391000FEF726FD2A463346CDE9000106982049E8
:1039200014F031FF0020C3E61E4A08210698234602
:1039300014F01CFF224639460A4801F0B1FAA8B338
:1039400001F058FF224603461749069814F037FF46
:103950006FF00400ACE600BF452829202833026040
:103960006666663F380C2920941E2920980C292071
:103970006333026044282920981E29207433026092
:10398000573302605A3302605D3302606033026075
:1039900080330260A0860100B5330260BA33026052
:1039A000F633026093330260993302603CB913F03E
:1039B000E2F8B0EB0B03079361EB0A0308930134C1
:1039C000B44219DA58F82450D9F85C30AB423FF4CD
:1039D00041AF0E4B1B78B3B140232A4639460C4801
:1039E000009314AB13F007FE14AB0A4A08210698A3
:1039F0002F4614F0BBFE2AE7074B0CA8996A02F089
:103A0000F7F90546E0E72B46044AEFE7442829206A
:103A1000981E29205F460260380C2920B1330260CD
:103A20002DE9F04F7A4E87B00D467A49044692460A
:103A300014F0A9FE4FF48053774A3046774901F0DD
:103A4000E5FE60B16FF0150801F0D4FE744902463E
:103A5000204614F0B4FE404607B0BDE8F08F71492F
:103A6000204614F090FE002D03DDD6F81C31AB4249
:103A700001DAD6F81C512946654813F0B0FBB0F5C1
:103A8000802F81460DD9820A674920464FF4807302
:103A900014F095FE6549204614F091FE6FF00B0876
:103AA000D9E75E4B1B683BB3614BD3F80080BAF19A
:103AB000000B2946564818BF4FF0010B5A4613F029
:103AC00076FBD6F818310746DB00059300F09AFC28
:103AD000059B08EB07021A444368190B1B05934228
:103AE00071F100010AD205EBD5755249BA0A204698
:103AF0006B1014F064FED1E79846D8E708F13F0850
:103B000007F13F034C4A28F03F0841494B484344E2
:103B100023F03F03136008F1E0432A460397029322
:103B20004FF480230193464B00935B4613F073FBE5
:103B3000804638B101F05EFE42490246204614F04C
:103B40003EFEABE72046404914F01DFE40233F4AAD
:103B50002F493F4813F00DFDB0FA80F2DFF828B18D
:103B6000204652093B498BF8002014F00CFE3A4BDA
:103B70000122204639491A7014F005FED6F8183192
:103B8000204637490393D6F814310293D6F8103102
:103B90000193D6F80C310093D6E9412314F0F3FDDC
:103BA000D6F82C212F4B304E022A08BF1E4601F0BA
:103BB0002BFD2E4903462E4A9BF800C0BAF1000F98
:103BC00018BF0A462B482C490095BCF1000F18BFBE
:103BD00001462046CDE901213246284914F0D3FDA3
:103BE000134B2046D3E90021059B920A9B0A42EA27
:103BF000815223490093BB0A14F0C5FD4FF4807332
:103C00004FEA99221F49204614F0BDFD23E700BF6B
:103C1000980C29205434026086282920100E29206F
:103C2000653402607534026087340260B634026025
:103C3000300C292009350260941E2920380C2920D7
:103C400000802020503502605D3502604628292022
:103C5000981E292071350260452829207B45026085
:103C6000813502605C320260613202603934026088
:103C70003E3402607C45026043340260B635026027
:103C8000E0350260113602604428292001292DE91F
:103C9000F043044685B05AD9556868492846FEF76E
:103CA00079FB064620BB082000F02CFD051E06DA35
:103CB0006349204614F083FD6FF0040028E000F013
:103CC00061FB0746284600F05DFB5E4B5E49B0FB9A
:103CD000F3F00A23B0FBF3F203FB12035B4A204626
:103CE000B7FBF2F214F04FFD594B1E7000200FE0AD
:103CF00058492846FEF74EFB064648BB00F082FBBB
:103D0000456845B92046544914F059FD6FF012003A
:103D100005B0BDE8F0832A46504920464C4F14F0C8
:103D200032FD32462905304612F0B2FF0546034601
:103D300030B14B4A20464B4914F025FD3E70BBE79D
:103D4000494A2046474914F01EFD3D70CEE7474DD5
:103D500047492846FEF71EFB0646C8BB4FF48011B4
:103D60000A2712F010FF3A4B05464FF480113046F7
:103D70001E7012F050FF64264FF47A7980463D4958
:103D80002046B5FBF7F3B3FBF6F206FB1233B5FBA7
:103D9000F9F214F0F8FC384920462D01B8FBF7F78A
:103DA000B7FBF6F3B8FBF9F206FB137314F0EBFC68
:103DB0005A233249B5FBF3F3B3FBF6F206FB123399
:103DC00042F22832B5FBF2F2204614F0DCFC8DE71B
:103DD00000F018FB426805466AB920461E4914F0F7
:103DE000D2FC20462A69264914F0CDFC25492046FC
:103DF00014F0C9FC7AE703780A272349234E806927
:103E0000012B18BF0E460F49B0FBF1F1B1FBF7FCD7
:103E100007FB1C1102910D49B0FBF1F01C49CDE9E3
:103E20000060204614F0AFFC2B69AA6820461949AF
:103E300014F0A9FC6B69EA681749C5E739360260D6
:103E40003F360260A08601008336026040420F00C8
:103E500045282920993602609E360260B1360260FC
:103E6000E1360260E6360260F936026034360260FE
:103E7000FE36026004370260233702604237026078
:103E80009B370260B0370260604602607C4502608A
:103E900004380260283802604E3802602DE9F84F7D
:103EA00005460E46174698460224AC4201D3BDE8AB
:103EB000F88F56F824A04FEA840B0E495046FEF7BF
:103EC00069FA60B904F101094D4508D906EB0B0305
:103ED00058681BF0AFFC386009F10104E5E70649BA
:103EE0005046FEF757FA10B90123C8F80030A14632
:103EF000F2E700BF74380260773802602DE9F047BE
:103F000000239EB0012905460E461446CDE9043330
:103F100008D86FF015043B4914F051FC20461EB040
:103F2000BDE8F08700F06EFA436833B93649284699
:103F30006FF0120414F043FCF0E705AB04AA21462D
:103F40003046FFF7ABFF63681A782F2A2AD15F2229
:103F5000194606A81BF0A1FC00262C4B2C4F1E7006
:103F60008DF8776000F0F0FE06AB2A4A082128465B
:103F700014F0FCFBDFF8B4903D6012F0FCFD264B22
:103F800080468A46254A009331464B4606A800F0F3
:103F9000E9FD3E60044658B102462149284614F026
:103FA0000EFCBBE71F4A602106A810F051FDD3E7C5
:103FB00012F0E1FDB0EB080661EB0A07D9E9000158
:103FC00056EA07034FEA90284FEA912908BF234693
:103FD00048EA81581ABF32463B460122FEF7C0F933
:103FE00042464B46CDE90201CDE900670E4928461D
:103FF00014F0C9FB2846DDE90412FFF711FD044661
:104000008CE700BF7D380260AE3802604528292069
:10401000901E2920F03802603D360060100E2920E5
:10402000FD380260E83802600F390260300C292048
:10403000012370B599429CB014464FF0000205462A
:104040000E46CDE9022307D86FF015041D4914F080
:10405000B6FB20461CB070BD03AB02AA2146304619
:10406000FFF71CFF63681A782F2A25D15F221946B3
:1040700004A81BF012FC0023134A144928461370AD
:104080008DF86F3014F07FFB114B04A8114A1249D0
:1040900000934FF4004300F065FE044602460F49CA
:1040A000284614F070FB002CD3D12846DDE902121B
:1040B000FFF7B6FC0446CCE7094A602104A810F0DB
:1040C000C7FCD8E7363902604528292061390260EB
:1040D000300C292000002020100E29207A3902609F
:1040E000E838026010B5184C236803F00703022B70
:1040F00004D9164A0321204614F0BCF8032000F02E
:1041000085F9002808DC236813F0060F04D0104A54
:1041100002210D4814F0AEF800F0B4FC40B1236861
:1041200013F0060F04D00B4A0221074814F0A2F83E
:10413000236803F00703022B04D9074A032102482E
:1041400014F098F8002010BD000A2920913902606F
:10415000AB390260D7390260103A026037B50A46BF
:10416000054601460B4809F037FD044670B90122A7
:104170002946084809F0FAFE044638B90123EF221F
:10418000294604480093022315F0DCFF204603B0C3
:1041900030BD00BF900B2920F0B587B02C4B002616
:1041A0002C4F02AC0FCB254684E80F0055F8041BBA
:1041B000384616F009F8044660B1274803685F07DF
:1041C00005D0264A33460121009414F066F82046B3
:1041D00007B0F0BD0136042EE8D11E4815F0ABFF44
:1041E00001280ED11E49FFF7B9FF044648B11A480D
:1041F00003685D07EBD01B4A2346012114F043F806
:10420000E5E719490020FFF7A9FF044630B112483D
:1042100003685907DBD0154A2346EEE70D4808F03E
:1042200025F9044630B10C4803685A07CFD0104A2C
:104230002346E2E7074808F05FF904460028C6D0A5
:10424000054803685B07C2D00A4A2346D5E700BF8A
:1042500068060260900B2920100A2920333B026077
:104260007C022920453B026090022920533B0260DA
:10427000613B02606F3B026008B54FF47A72002325
:1042800002480FF00FFC002008BD00BF600129208C
:10429000002307B50193124883681B6DB3B101AACF
:1042A0000121984790B9019B862B0FD10D480368D7
:1042B00013F0060F03D00C4A022113F0DBFF00219C
:1042C0004FF4FA7010F008F872B6FBBE4FF47A7231
:1042D000002306480FF0E6FB03B05DF804FB00BFC7
:1042E000FCFD0160140A2920983B0260600129202E
:1042F000074B00040122C3F8A010C3F8A400C3F8C0
:10430000B0205A69D207FCD501225A61704700BF1C
:1043100000402A4010B50C4601460020FFF7E8FF98
:104320000120FFF7E5FF0220FFF7E2FF134B144ADD
:10433000C3F8A010C3F8A4200122C3F8B0205A6922
:10434000D207FCD5D3F8000121225A6183B245F689
:104350000D52206093420ED045F69D52934208D1F3
:10436000C0F34250032806D0031F584258410001B1
:1043700010BD0020FCE70820FAE700BF00402A40FB
:1043800004000300092838B504462ED8184D05EB63
:1043900040035B78012B16D0022B1CD01BBB154BA6
:1043A000D3F8003113F47C1FC3F3054205D0124843
:1043B00002210023FDF7D4FF024615F81430013323
:1043C000B2FBF3F038BD0B4BD3F8F02012F03F02F4
:1043D000F3D00A48ECE7074BD3F8F030C3F30522DB
:1043E00013F47C5FF4E7064AE7E70020EAE700BF42
:1043F000F53C026000800D4000887B3600F0FB0237
:1044000000A4781F00487047B81E29202DE9F04FFE
:1044100083B000240928064600AFC7E9004400F233
:104420003E81A04D2022214628461BF0F8F9304657
:104430002E77FFF7A7FF9C4B1822A8619B499C4849
:10444000C3F85C12DA66C3F860021A67C3F8641234
:10445000A1F530415A67C3F8681201F5E0419A6747
:10446000C3F86C12DA67C3F87012C3F88020C3F87F
:104470007412C3F88420C3F87812C3F8882001228C
:104480008C49C3F82C27C3F83027C3F83427C3F866
:104490003827C3F83C27C3F85027874B8A6913F89D
:1044A000160003EB460322F060425B7822F4407270
:1044B0001B0243EA407313438B61D1F8843043F00D
:1044C0000C03C1F884307D4B1A6842F002021A6076
:1044D00019687B4A21F4F14121F073010904090CA8
:1044E0000A4378491A604FF0FF325A609A6822F006
:1044F0007F4242F000529A60DA6822F07802DA6075
:10450000714A1A625A629C62DC62D3F8B82022F0C7
:104510003F0242F00102C3F8B820D3F8BC2022F0D9
:104520003F0242F00102C3F8BC2021221C611A673D
:104530005A6740F20562C3F88020C3F884201A68E5
:1045400022F002021A60614A9A610222DA61604A2C
:1045500042F8044B8A42FBD11A68584C42F00102DF
:104560001A60236813F00108FBD1584B4FF0020981
:1045700039464046A36140F2F563C4F81C90C4F884
:10458000003240F26643DFF874A1C4F8103240F202
:104590009943C4F820324F4BC4F8303242F2014301
:1045A000C4F8343240F23543C4F840324A4BC4F8C0
:1045B00050324A4BC4F85432494BC4F8603242F28C
:1045C0000123C4F86432FFF7A5FE064678B9DAF88D
:1045D000003013F0060F05D03B68424A494650466A
:1045E00013F051FE00200C37BD46BDE8F08F83026A
:1045F00041464FEA065B04202366FFF779FE391D2A
:104600005846FFF787FE8046002844D0830259466B
:1046100004206366FFF76CFE3B6885F800902B6111
:104620007B68C5E9026846446B616E60BFF34F8FDB
:10463000DAF8003003F00703022B2AD928786C46F9
:10464000294B8CB029496E686A46012818BF194663
:10465000AB69C2E907012649DFF8A4C0B3FBF1F159
:1046600051622449B3FBF1F30A21B3FBF1F001FBE2
:104670001033936240F2024393851F4BC2E905C693
:1046800042F8103F00234FF473511C4802F0BEFD66
:10469000A5466868A7E74FF001096066BCE76FF0C0
:1046A0001500A0E7B81E292000801F40F9B00100C6
:1046B000F910010000C00F40F53C026000402A40A4
:1046C0001200FFFF00432A4040000080F05AF05AD9
:1046D00000422A409F041830EB06180A06320126D1
:1046E0003806180AD03B0260604602607C450260D2
:1046F00040420F00A086010007000001F0092920B8
:10470000333C02602DE9F04F91B00A2805464FF086
:10471000000302AF28BF092507F1100842461946D9
:1047200001339D4242F8041BF9DA6B1C0126B342A7
:1047300065DC4FF000094FF0FF34DFF8F4A1C84604
:1047400007F1100353F828301846FB60FFF71AFEF4
:104750008346F868FFF75AFE0646002868D1DAF863
:10476000002012F0060F21D06D4B0A226D49BBFBD1
:10477000F3F3B3FBF2F0BBFBF1F102FB10336A4839
:104780006E468AB002AAC2E9073040F20243DFF85F
:10479000BCC19384654BC2E905C142F8103F0023B8
:1047A0004FF43251624802F031FDB546002CC0F2A0
:1047B000A5805F4E2046FFF729FE336803F007030C
:1047C000022B17D92046FFF7DDFD05462046FFF7EF
:1047D000D9FD534A0A23B0FBF2F2B2FBF3F103FB1B
:1047E0001122504B032130460092524AB5FBF3F39D
:1047F00013F053FD20463C37BD46BDE8F08F08EB73
:104800008604D4F800B0FB605846FFF7BBFD54F8AF
:1048100004AD81465046FFF7B5FD8145FB6803D2E4
:10482000A045C4E900BAECD1013680E7984687E795
:10483000484511D2DAF8002012F0060FB6D0384BF6
:104840000A223849BBFBF3F3B3FBF2F0BBFBF1F1F7
:1048500002FB1033384893E7000500224FF4801123
:10486000A0F5801012F014FA4FF4002178600020B7
:1048700012F089F9DAF80020B86002F00702022A83
:1048800036D9284A0A217868C7F800D08CB0BBFB1B
:10489000F2FC234ABBFBF2F3B3FBF1F201FB123E45
:1048A000264A274B002808BF134602AAB868DFF83B
:1048B000A0B0C2E907E34FF47A73B0FBF3F353629D
:1048C0006423B0FBF3F0B0FBF1F301FB130040F203
:1048D000024393851B4B9062C2E905BC42F8103F2E
:1048E00000234FF47351124802F090FCD7F800D027
:1048F0007B68002B7FF45AAFFC68B146A84508F1ED
:10490000010393DB002CBFF654AF094803685B0733
:1049100003D00D4A012113F0ADFC6FF0040469E7E8
:10492000A086010040420F00573C026005000001D4
:10493000F0092920E03C02606E3C02608D3C026080
:10494000E136026007000001C13C0260923C026057
:10495000A13C02602DE9F8461C4B1446099F1B78C8
:1049600083B34FF0FF324FF0FF3319480EF098FD3C
:1049700021460022174806F05DFB044690B9054623
:10498000DFF85490DFF84CA0AF420DD97A1B1249E2
:104990005046B2F5004F28BF4FF4004206F02CFB02
:1049A000061E07DC6FF0040409480EF0F1FD2046F6
:1049B000BDE8F886089B32464946581935441AF036
:1049C00006FFE1E76FF00804F1E700BF8638292011
:1049D000D81E2920EC1E2920800028202DE9F04334
:1049E000A3B00D468046914600AF394606F040FB25
:1049F0000446D8B11F4803685A0712D06D468AB0E2
:104A00006A461D4BD461C2E905384FF40073138424
:104A10001A4B42F8103F00234FF4115102F0F6FBFD
:104A2000AD4620468C37BD46BDE8F083D7F88430CC
:104A3000064601224146C9E90030C5E90000287256
:104A4000284606F029FA04460028EAD009480368F7
:104A50005B07E6D06D468AB06A46094BD461C2E96D
:104A600005384FF400731384044B42F8103F33466B
:104A7000D2E700BFDC092920093D026004000001E3
:104A8000153D0260F0B52D4E83B0347800AF002C98
:104A900052D121464FF40F7229481AF0C0FE29481E
:104AA000294DC7E9004413F07EFC044660B12B6831
:104AB0005A0705D0254A03460121284613F0E3FB97
:104AC00020460C37BD46F0BD3A4601211D4802F094
:104AD0008FFE3A1D02211B4802F08AFE1C4806F098
:104AE0000DFB044628B12B685B07E9D0194A034641
:104AF000E2E7012333702B6803F00703022B1BD975
:104B00006E468AB0D7E90032A3FB02321B0D43EA9E
:104B100002336A46104951611049C2E906134FF445
:104B2000007313840E4B42F8103F4FF413510346A9
:104B3000284602F06BFBB5460024C1E787382920E0
:104B400080802820213D0260DC092920243D02606C
:104B50001C0329206D3D02607A3D0260933D026096
:104B6000040000012DE9F04F8DB09B46002300AFFB
:104B70007A6000223961B860C7E90623FFF742FC7A
:104B80000546FFF77FFF0446C0B907F1180207F199
:104B90002401B868FFF722FF044678B9696891B923
:104BA00062480368590703D0614A012113F062FB90
:104BB0006FF0120407F1240006F000FA20463437A3
:104BC000BD46BDE8F08FD7E906593B694FEA015C65
:104BD0000A0B5E1949F10000B445824120D25348C6
:104BE0000268520715D06E468AB06A46514B2D0DA9
:104BF0001162536145EA09354FEA1953C2E9065378
:104C0000052342F8103F4FF42151234602F0FEFAEB
:104C1000B54607F124006FF01B0406F0CFF9CDE78D
:104C20003B69A2467C6103F1E043FB607B69AB42D8
:104C30007AEB09022CD307F1240006F0BFF92A46CB
:104C40004B46F968786812F085F9BBF1000F01D086
:104C5000CBE900593548026802F00702022AADD9B3
:104C60006E468CB06A46BB68334993613B695161BB
:104C700093624FF400739385304BC2E9085942F8B0
:104C8000103F00234FF4735102F0C0FAB54695E788
:104C90007B6907F12400EA1A48F2010369EB0A0173
:104CA0009A4271F10001264928BF4FF4004206F0F4
:104CB000A3F9B0F1000821DC1C4803685B0712D09F
:104CC0006C468AB06A461F4BC2F8208053617B69EC
:104CD000C2E9063A052342F8103F00234FF4215160
:104CE00002F094FAA54607F1240006F067F9B8F13E
:104CF000000F14BF44466FF004045FE7FB684246B0
:104D000078690F4918181AF062FD7B6918EB0306E1
:104D1000BB6D4AEBE87A7E61002B87D030462A468D
:104D20004B465146BE6DB04780E700BFDC092920E5
:104D3000983D0260CB3D0260303E026007000001FA
:104D4000800028201F3E026010B5044C237823B158
:104D5000034806F033F90023237010BD863829205C
:104D6000EC1E29202DE9F04F87B093461D46002206
:104D7000002304AF06468A46C7E90023FFF782FEF8
:104D80000446002848D1FFF7DFFF26481AF0B8F89C
:104D90003A4625493046FFF721FE044600283BD11C
:104DA000224B0122D7E900891A70214B424601901B
:104DB000504600934B46CDE902B512F0D9F83B6B53
:104DC0000BB1C3E90089DFF878B0DBF8003003F0FD
:104DD0000703022B16D9EA468CB004AA154BAD0A7C
:104DE000C2E905364FF4007395629385124BC2E910
:104DF000088942F8103F00234FF47351584602F0DF
:104E000005FAD546DBF8003013F0060F04D00B4A44
:104E100002210B4813F02EFA20460C37BD46BDE8A0
:104E2000F08F00BFD81E2920EC1E292086382920AB
:104E300055490060563E0260070000017B3E02605B
:104E4000DC09292030B59FED157A0D4600249C42DF
:104E500011DB07EE903AF8EEE76AC7EE267A37EEF6
:104E6000800AB1EEC00AF7EE007A002487EE807A5D
:104E70009C4206DB30BDF5EC017A013407EEA77ADF
:104E8000E5E7F1EC017A0134F2EC016A67EE877A2A
:104E900067EEA67AE0EC017AEAE700BF00000000C6
:104EA0002DE9F04F2DED068B05688FB000290446E3
:104EB000D5F82431D5F80461D5F820B104920A93CD
:104EC000C0F27783D5F818318B4240F37283002A01
:104ED000C0F26F834368934240F36B8307EE90BA4E
:104EE000F8EEE79AF1EEE99AC36828460196CDE913
:104EF0000213D5F82C310093D5E94C2312F014F9A4
:104F0000804600287FD1D4F800A0B7EE008ADAF8F6
:104F1000203103EBD3735F10474536DC88EE299AC6
:104F2000B300DFEDB38A09934FEA8B030C930023A0
:104F30000593D5F80C31059A934253DC099B28461A
:104F40000093D5E94E2312F022F90246002858D0EA
:104F5000E168334695ED150A0846FFF773FF3246C0
:104F6000E16BE06800F054FBE36B20460393D5F857
:104F70001831CDE90163D5F82C310093A16AD5E948
:104F8000502312F008F880463DE04FEA4803DAED7E
:104F9000487A9AED140A4FEA880900EE903AF8EE42
:104FA000E77A08F10108F8EEE00AC0EEA70AFDF77B
:104FB000B7FFDDED047AC8EE008AF8EEE77A68EE16
:104FC000A78AB0EE680A10F05BFF636B4B4483ED79
:104FD000000AB0EE680A11F093F9A36B4B4483ED1D
:104FE000000A99E7D5F8483148220599284602FB7E
:104FF000013B099B0093DBE9002312F0C8F802464D
:1050000038B96FF0070840460FB0BDEC068BBDE81D
:10501000F08F95ED150A3346D4E90310FFF712FF20
:105020003246E16B206900F0F3FAE36B019620460B
:10503000CDE90263D5F82C310093216ADBE9042322
:1050400011F0A9FF80460028DDD1E36B20460393D1
:105050000A9BCDE90163D5F82C310093E16ADBE9C5
:10506000062311F098FF80460028CCD1E36B204640
:1050700003930A9BCDE90163D5F82C310093216B92
:10508000DBE9082311F087FF80460028BBD12046CA
:105090003246216A11F03CFE0A9AE16A11F038FEAC
:1050A000E36A606C0793236B0B900893DDE904219E
:1050B000D4E9007303FB0123D7F82421A16802FB84
:1050C00003FA002940F096809200079900EB8A00CD
:1050D0001AF07DFBA06C4FEA8A08D7F824210899C2
:1050E000920040441AF073FB4FF00008CDF8208086
:1050F000D5F810312069434500F334813246E16B25
:1051000000F086FAE36B01962046CDE90263D5F8FC
:105110002C3100936169DBE90A2311F03CFF8046E2
:1051200000287FF470AFB045C0F20882099B284682
:105130000093DBE9022312F02AF8024600283FF42C
:1051400060AF95ED150A3346D4E90310FFF77AFEF8
:105150003246E16B206900F05BFAE36B2046039373
:10516000D5F80831CDE90163D5F82C310093A16958
:10517000DBE90C2311F00FFF804600287FF443AFDA
:10518000E36B20460393D5F80831CDE90163D5F8E8
:105190002C310093E169DBE9102311F0FCFE80461D
:1051A00000287FF430AFD5F80821A069424500F30C
:1051B000D681216C00F02CFA236C2046CDE90263E5
:1051C000D5F808310193D5F82C3100936169DBE9FA
:1051D0000E2311F0E0FE804600287FF414AFB045A6
:1051E000C0F2D681059B01330593A2E60000FE4282
:1051F00000000000A26CF6EE006A40461FED055A62
:105200000D92D7F8142153439B000693D7F814212D
:105210009042BFF669AFD7F82021B0EE686AF0EE91
:10522000685A00FB02F11346089A02EB810E079AB6
:1052300002EB810CF1460022E04693422ADC85EE27
:10524000857AE26C069B51444FF000081A44C6EE82
:10525000057AB5EE407A82ED007A226DF1EE10FA11
:105260001A44F5EE407AC2ED007A14BF88EE076A60
:10527000B0EE686AF1EE10FA14BFC8EE275AF0EEED
:10528000685AD7F82021904528DB069B013004336B
:105290000693BBE7F8EC017A0132B9EC017AF5EE3E
:1052A000C07AF1EE10FAB5EEC07A48BFF1EE677A37
:1052B000F1EE10FAF4EEE75A48BFB1EE477AF1EE9C
:1052C00010FAB4EEC76A58BFF0EE657AF1EE10FA44
:1052D000F0EE675A48BFB0EE476AAEE7BCEC017A21
:1052E000FEEC017A27EE067A67EEA57AB5EEC07A73
:1052F000F1EE10FAF5EEC07A4CBF37EE667A37EE73
:10530000267AF1EE10FABDEEC77A4CBF77EEE67A58
:1053100077EEA67A17EE109AFDEEE77AB9F17F0FD5
:1053200017EE902A13DC19F17F0F13DB4FFA89F97E
:105330000B9B7F2A03F801900FDC12F17F0F0EDB2D
:1053400052B20D9B08F101085A54013199E74FF010
:105350007F09EDE76FF07E09EAE77F22F1E76FF062
:105360007E02EEE7236A089A676A03EB020C636821
:1053700003FB08F307EB830783180B93BE46D5F8AE
:1053800028310D9798FBF3F3079300230693D4E994
:105390000093DDE9052103FB021A079B616CD9E943
:1053A0004802434302FB0A33A268002A70D1E14657
:1053B00001EB83035FED727A904261DC069B69EE3C
:1053C000277A0133EEEC017A0693069A049B934206
:1053D000DDDA3B460122F3EC019A0499914278DA36
:1053E000BA464FF000091FED7EAA9AED000A30EE92
:1053F000690A10F08BFD049A3AEE00AAAAEC010AA1
:105400004A4509F10109F0DC88EE0A7A0023D7ED5C
:10541000007A0499994203F1010367EE277AE7ECD9
:10542000017AF4DC0C9A00210B981AF0F8F94FF08D
:10543000000E0D9B0798F3EC017AD4F848C00D9349
:10544000059BD4E9002707FB03E7D2E94831434332
:1054500001FB0733A16800294FD10B9F0CEB83039D
:10546000D2F8200181423EDB0EF1010E049B734510
:10547000DFDA089B08F101080C9A1344089337E619
:10548000F9EC016A0132B3EC017A46EE877A93E7D0
:10549000079AD9F814915FEDAA7A09FB0A290A46FE
:1054A000E2461A440023984207DCE26C02EB8902D0
:1054B00092ED007A67EE877A80E712F9011B0133DB
:1054C000FAEC016A07EE101AB8EEC77A47EE267AB0
:1054D000E9E7F3EC017A0132F4EEE97AF1EE10FA41
:1054E00077FEA99A79E797ED007A0131F3EC016A2A
:1054F00007EEA67AA7EC017AB2E7D2F814119C4421
:10550000079801FB0707216D01EB8701002791ED4B
:10551000007A0B9967EE877AD2F820319F42A3DA9E
:105520001CF9013B013791ED007A06EE903AF8EE56
:10553000E66A06EEA77AA1EC017AEDE7E368626914
:1055400003EB880302EB880208F10108D3ED007A2F
:1055500092ED007A77EE877AC3ED007AE3E500EB0F
:1055600088074FEA880908F10108D7ED009AB1EEE3
:10557000690A10F0CBFC30EE080AE36989EE807A04
:105580004B44D3ED007A67EE877AC7ED007A0AE6DE
:10559000E368626903EB880302EB880208F1010803
:1055A000D3ED007A92ED007A77EE877AC3ED007A38
:1055B00015E66FF0080826E5030410F4F84FC0F371
:1055C0008421C0F3090203F0004310D162B17121BC
:1055D00010465200013912F4806FF9D0094A43EAAB
:1055E000C15302EA8032134300EE103A70471F297C
:1055F00043EA423316BF703143F0FF4343EAC153DD
:10560000F2E700BF00E07F0000487047EC3E026018
:10561000002AB7EE005A9FED2E6AB8BF1F32DFEDA9
:105620002D5A2DE9F84304464FEA62184D1C002616
:10563000464501DBBDE8F88323469FED260A04F1C9
:105640008009F3EC017AF5EEC07AF1EE10FA48BF6A
:10565000F1EE677AF4EE407AF1EE10FA37FE800A46
:105660004B45EED180EE060A11F0A8FB0746FFF786
:10567000A3FF2A466FF07E0125F8017CB5EE400AB3
:10568000F6EE006AF1EE10FA14BF85EE007AB0EE85
:10569000657AF4EC017A67EE877AF5EEC07AF1EE7E
:1056A00010FA4CBF77EEE67A77EEA67AFDEEE77A4F
:1056B00017EE903A8B42B8BF0B467F2BA8BF7F23D3
:1056C0004C4502F8013FE4D101362235B0E700BF76
:1056D0000000FE42000000002DE9F0479FED277A10
:1056E000904607460E464FF000094FF0083AC14574
:1056F00003DBB0EE470ABDE8F08702220024BB5866
:1057000003F00F35C5FA0AF51B0903F00F33C3FA8E
:105710000AF39119905909692FFA85FC2FFA80FE36
:105720002CFB0E442D0A2FFA85F5000A2FFA80F083
:1057300025FB00452FFA83F42FFA81F024FB005457
:105740001B0A2FFA83F3090A2FFA81F123FB014484
:105750000432122AD3D107EE904A37F8120BFFF722
:105760002BFF36F8220BF8EEE77A09F1010967EE14
:10577000807AFFF721FF07EE807AB8E7000000008B
:105780002DE9F8439FED1A7A904606460F464FF0F2
:105790000009C14503DBB0EE470ABDE8F8830222E9
:1057A00000239459D5592FFA84F12FFA85F021FB63
:1057B0000033240A2FFA84F42D0A2FFA85F524FBEE
:1057C00005330432222AECD107EE903A36F8220B48
:1057D000FFF7F2FE37F8220BF8EEE77A09F101093C
:1057E00067EE807AFFF7E8FE07EE807AD1E700BF28
:1057F00000000000093009289ABF024B53F820002E
:1058000001487047F0090260FA3E02602DE9F04F4E
:10581000ADF61C1D0C46164600214FF4BC728146A5
:10582000039319F0FCFF4FF48073C9F80041002284
:1058300048460093002311F0AAFC014610B96FF00E
:10584000020B79E00268B84B9A4240F074824368D8
:10585000012B40F073828268B2F5807F40F06E8247
:10586000484619F0B4FFD9F80C30002B40F069829B
:10587000D9F8448008F1FF33012B00F26282D9F895
:105880004830202B40F05D82D9E90812D4E90203A8
:1058900088429341D3D3D9F82820002A40F341818C
:1058A000D9F83040002C40F33C81D9F83450002D19
:1058B00040F33781D9F83810002940F33281D9F804
:1058C0003CA0BAF1000F40F32C81D9F84070002FB2
:1058D00040F32781D9F82CC0BCF1000F40F321819F
:1058E00092FBF5F305FB1320002840F01A8142EAF1
:1058F0000C0095FBF1FE00F01F0001FB1E5B50EA5F
:105900000B0B40F00E81C9F82031C9F81C71C9F8A1
:105910002C81C9E9451A59434823C9E9412C03FBA5
:1059200004F2039B9A42C9E94345C9E9491E08D9D3
:10593000C9F848B16FF0060B58460DF61C1DBDE8BE
:10594000F08FC9F84861002EF4D05946304619F05E
:1059500066FF764AD9F82C015F460E9209F59872D7
:10596000D9F81831D9F80411714CCDF84CB01E9407
:1059700009F5A074CDF86CB0CDF894B0CDE90F2046
:105980000122CDE9142B6B4A169209F59C72CDE9E0
:10599000172B0122CDE91C2BD9F84C20B2FA82F248
:1059A0005209CDE923B2644ACDE91131CDE9191B81
:1059B000CDE921312692591C09F5A872CDE91F4085
:1059C000CDE9272BCDE9293BCDE9311B5B495C4A69
:1059D000369109F5B0712E9209F5AC723791032119
:1059E0002F920422CDF8B4B03092CDF8D4B0CDF8D7
:1059F000E8B0CDF8F4B0CDF814B1CDE9381B09F515
:105A0000B871CDE93B1B4F493E9109F5B471CDE921
:105A10002BBBCDE933BBCDE93F12CDE9413BCDE90D
:105A200043BBD9F81060BE424BD80EAB0722996930
:105A300019B1D969002900F08781013A03F12003E7
:105A4000F5D1D9F84C30002B40F07081D9F80C0119
:105A50000022482490427FF76FAFD9F8485104FBE9
:105A600002F16B1869585D68294300F06D81D3E934
:105A70000215294300F06881D3E90415294300F099
:105A80006381D3E90615294300F05E81D3E9081547
:105A9000294300F05981D3E90A15294300F05481C4
:105AA000D3E90C15294300F04F81D3E90E152943A2
:105AB00000F04A81D3E91013194300F04581013207
:105AC000C8E7F61BD9F814304FF0000A4022202E08
:105AD00019465346484628BF2026E7FB02130A46CC
:105AE000B401009411F053FB014600283FF4A7AE27
:105AF000224646AC46A819F06AFED4E90C8303930B
:105B0000039AD4E90E1318EB010542EB0303D9E91C
:105B10000802A84272EB0303FFF491AE18F03F0FA6
:105B200012D06FF0050B07E7455451312C4002604D
:105B30001E40026022400260134002600140026089
:105B40000A400260F63F02600EAB072004F1170C1A
:105B5000DA69002A2ED11A68651E013A049215F8F6
:105B6000012F0592049A12F801EF0492059A9645C6
:105B700020D1BEF1000F01D06545F0D1A0699A682F
:105B80009042CED11D69002D5AD0E269022AC8D1B7
:105B9000206ADA689042C4D1626A9542C1D15A68DB
:105BA0000398C2F8008050605A6902B11160012266
:105BB000DA6103E0013803F12003C9D123786C2BAB
:105BC00073D123792E2B70D16378642294F803C0AB
:105BD000303BACF1300C02FB03CCA3780A22303B03
:105BE00002FB03CCD9F80C3163455ED9A64607AD5C
:105BF000BEE80F000FC59EE803004FF0000385E8E4
:105C00000300D9F848510DF121008DF834304823B4
:105C10004F4903FB0C55D9F82C310493FCF7BAFB20
:105C2000C0B9D9F80431002D3FD0A269002A7FF411
:105C300078AFE269012A7FF474AF226A9A422EE0BB
:105C4000DA68002AABD0E06901287FF46AAF206AE5
:105C50008242A3E73F490DF12100FCF79BFB18B9F5
:105C60000835D9F80431E0E73B490DF12100FCF794
:105C700091FB10BB1035D9F804311A46A16904987C
:105C800081427FF44EAFE169002AD2D002297FF42D
:105C900048AF216A99427FF444AF636A93427FF42C
:105CA00040AF039BC5F800806B600AF1010A4034E5
:105CB00056457FF422AF3744B3E628490DF1210061
:105CC000FCF768FB28B91835D9F82431D9F8042134
:105CD000D4E723490DF12100FCF75CFB08B920351E
:105CE000F2E720490DF12100FCF754FB08B92835F3
:105CF000C1E71D490DF12100FCF74CFB18B9303507
:105D0000D9F80831E2E719490DF12100FCF742FB0F
:105D100018B93835D9E94132B0E715490DF12100FC
:105D2000FCF738FB0028C0D14035E9E7D9E94C231E
:105D3000C9E950238AE64FF0FF3BFDE56FF0010B08
:105D4000FAE56FF0030BF7E56FF0040BF4E500BF25
:105D5000D43F0260DC3F0260AA570260E43F026069
:105D6000E73F0260EA3F0260ED3F0260F03F026001
:105D7000F33F0260D0E90032190B41EA025182EA96
:105D800012324B40510641EAD31183EA43634A4041
:105D9000D90E41EA421182EAD2624B400749C0E97A
:105DA00000325943064800FB0212A3FB00301318CF
:105DB0001B0A00EE103ABAEEC40A704791F445256A
:105DC0001DDD6C4F10B552EA030480ED020AC0EDF0
:105DD000030A04BF044B054A0161C0E90023029B8A
:105DE0004361039B836110BDE6493C859BEA8F7448
:105DF0002DE9F84F2DED048BD0ED027A04460E46C6
:105E00000769F5EEC07AF1EE10FA07D83946304648
:105E1000BDEC048BBDE8F84F11F005BBB7EE008A6E
:105E200088460A46002388EE277ABB4230DB394693
:105E3000304611F0F8FAB14606EB8000DFED728AC9
:105E4000002590ED009ABD422ADB88EE287A324682
:105E50000023BB4230DBD4ED037AF5EEC07AF1EEDD
:105E600010FA08D9F4EEC87AF1EE10FA03DA636991
:105E70000BB1A3699BBB2046DFED637AFFF77AFF86
:105E80000020B84220DB781EBDEC048BBDE8F88F03
:105E9000D2ED007A013367EE877AE2EC017AC4E74B
:105EA00099ED000A013530EE490A10F02FF878EE2E
:105EB000808AA9EC010AC6E7D2ED007A013367EEC9
:105EC000877AE2EC017AC4E7B8EC017A77EE877A58
:105ED000B4EEE70AF1EE10FAD6D40130D1E77B1E1A
:105EE00038EE678A002507EE903A2B46F8EEE77AFF
:105EF00088EE277ABB4240DB002D87D06E10D4E9B4
:105F00000510771E7B1C4DD105F1FF3900EB85078D
:105F10004FEA850AB846CB46BBF1000F48D10B1FAC
:105F200000EB86065144B04256D1A769002694ED95
:105F3000037A3B46DFED347AF3EC016A77EEA67A1A
:105F4000B4EEE77AF1EE10FA03D40136B542F3D19C
:105F50004E462046FFF70EFF20EE270ADFED2A7A95
:105F6000B7EC017A77EE877AB4EEE70AF1EE10FA31
:105F700042D5636953F82B0086E7D8ED007AF4EE3A
:105F8000C77AF1EE10FA09DB626942F82530A2699E
:105F9000D8F8001002EB850201351160013308F1D9
:105FA0000408A7E73A462B46013F11F052FAA9E749
:105FB000036858F804CD0A68C0F800C0C8F800307B
:105FC00051F82B300B605B4641F82B2000220BF17F
:105FD000FF3B11F03EFA9FE7D0F800C057F804ED00
:105FE00053F8042F40F804EBC7F800C051F804CD73
:105FF000C3F800C00A6096E70BF1010B5E45AFDA0B
:10600000636953F826003FE7000000002DE9F04FD8
:1060100014460546084689462DED028B8DB0049343
:10602000FCF7CAF9DDF860A080467CB1199B002B13
:1060300007DC6FF0060420460DB0BDEC028BBDE816
:10604000F08F2B6801249B6DCAF80030B8F1000F67
:1060500010D001226949284611F045FA002805DBD5
:10606000199B9C42E5DA4AF8240001344FF0000BFA
:10607000C3451FD3DFED628A4FF0FF36B0EE688A6A
:10608000D1460027B04604EB060B0394BB4566DC03
:10609000731C00F0A480B000A21B4AF826805C4666
:1060A00000F10801023A043092005144504419F0C2
:1060B0009CFBE1E719F80B3009EB0B0703F0E0025A
:1060C000C02A1DD003F0F002E02A1BD003F0F80331
:1060D000F02B0CBF042601260BEB0603394628469D
:1060E000434588BF0126324611F0FDF900280BDB3D
:1060F000199B9C429DDA4AF824000134B344B7E767
:106100000226E9E70326E7E7BB19019343F23C03C4
:1061100017F8012B2846ADF828304FF07803110905
:1061200002F00F028DF82A30364B9A5C595C8DF8DC
:106130002C203E228DF82B100AA98DF82D20062246
:1061400011F0D1F90028019B06DB199AA2427FF7D2
:1061500070AF4AF8240001349F42D6D1CEE709AB94
:1061600007AAD9F80010284611F0B0F90AAB08AA1E
:1061700059F8041F284611F0A9F9DDE90932019206
:106180009A1802920299EA69914226D81A4607990A
:10619000A869059319F01BFB059BA869019A08994A
:1061A000184419F014FB029AA969284611F09BF9CA
:1061B000002812DBB8F1FF3F6B684FEA800207D07E
:1061C0009918D1ED007AF4EEC87AF1EE10FA04DDF8
:1061D00013443E46804693ED008A013756E7049B00
:1061E000002B3FF428AF199B9C42BFF622AF2B68CF
:1061F0000134039ADB6D4AF822301CE7046D02601B
:1062000000000000344002602DE9F04F91B0840797
:1062100005460E46009302F00403DDF86880029301
:10622000C2F3C203039203F10103059340F0BA8164
:10623000041D30B1072909D86FF01B0011B0BDE86B
:10624000F08F01F007063444C6F10806009B4FF0BA
:1062500000094FF0040A591E4FF0FF334F46CB465A
:1062600001935346CDF810900DB100982060059829
:10627000002800F3E8809848009A824203D39748A8
:106280008242C0F0E080039AA4EB050E92074FEA29
:106290009E0000F103810F2F00F2B180002D00F06D
:1062A000058107F140020DEB020C019A0CF8200C5D
:1062B0000CF8102C049801300490E7E07A285DD89F
:1062C0004B280ED8472859D829282DD8252852D010
:1062D00054D820287AD02338D0F1000B4BEB000B98
:1062E00074E04C382E2849D8DFE800F07048484860
:1062F00048484848484848484B484848484848481B
:106300004859484B4B595959704B6D487048184B78
:10631000184848827F4B48484B487F0000204FF088
:10632000000B4FF0040A38E02A380122C0B202FA0A
:1063300000F010EA0E0F49D110F0625C2FD110EA84
:10634000020B43D06046013C5444B4FBFAF40AFB10
:1063500004F4002D61D0A3EB050CA444B4453FF632
:106360006BAF002868D1042B47D158F8043B236059
:10637000043404232AE0019A013A01924FF0000B01
:1063800024E011F8010C6C2834D111F8023C0020F3
:106390006C2B8346C5D14FF0080A5346D3E708F16A
:1063A0000708073428F0070824F00704F8E802ABD0
:1063B00035B106982044B0423FF63EAFC4E900AB89
:1063C00008344FF0000B4FF0080A534611F8010F44
:1063D000002878D0BBF1000F7FF470AF2528F5D1ED
:1063E000019B4FF0010B013301934FF0040AECE7DE
:1063F000584694E700208346A5E7082B02D06FF0AB
:1064000015001BE708F1070828F00708B8EC027B25
:1064100084ED007B08340823D8E768B9042B02D147
:1064200008F10408A4E7082BE9D108F1070828F0CF
:10643000070808F10808EDE705980138059058F8B5
:10644000040B009010E7039A900720D5A4EB050EEB
:106450004FF0010C4FEA9E00BEF5007FCFD20F2F08
:10646000CDD8F5B107F14002C0B20DEB020E019A92
:106470000EF8200C0EF8102CBCF1000F3FF41AAFF0
:1064800060F07F0009F101090EF8200C0137C5F119
:10649000080204344FF6DA7E069297E74FF0000CBC
:1064A000DAE7BCF1000F01D00136EFE7029A0236BD
:1064B000002AEBD10098CDE90631FBF77DFF0644B9
:1064C000DDE90631E2E7631BB3F5806F97D23DB992
:1064D000A6F10804E018B1E6F0FC0160706F0260FC
:1064E0009B08029A28602B709DF81030C2B1EB70A7
:1064F00085F80290B9F1000F05D008A80022C5F177
:10650000010C97420ED1C5F101030DF120084FF0A7
:10651000000A0DF1300B0193574512D1601B8DE637
:106520006B70E5E710F8013B190608D50CEB040E7B
:1065300003F07F03B6453FF67FAE04F8013B01321E
:10654000DFE7B9F1000F03D098F90020002A17DB2C
:10655000029BD3B11AF80B2004F8012B0022019BF7
:1065600018191044B0423FF667AE98F80000009941
:1065700004F8010B2046039219F029F9039A1444F8
:106580000AF1010A08F10108C6E798F8002055F859
:1065900022300093029B009845F82230FBF70CFF55
:1065A000421CDCE76FF00D0048E600BF2DE9F04F1C
:1065B00097B00446894600AF90F802A0D7F880B0A3
:1065C0003B62CBF3C003FA62BB6141B94578007806
:1065D0000AEB800020444D4517D8A0EB0409E3786E
:1065E000FB61BAF1000F02D01BF0010F16D1FB695D
:1065F00053BBFB6A1BB13A6A4946204698474D4651
:1066000028465C37BD46BDE8F08F461C09F10109FC
:106610003046FBF7D1FE01303044DCE72378626876
:1066200099007A62FA6A796104EB8301002A40F0EA
:1066300004814D460E4601EB0A094FF000084E4515
:1066400050D101EB0A0610E01BF0020FD1D02378E5
:106650009A0004EB83017A6162687A62FA6A002A1E
:106660007BD14D4601EB0A0690461BF0050F0CBF8F
:1066700002230123FB62FB6906EB430A0BF00203D2
:10668000BB625645BCD016F8021B16F8013C54F804
:1066900023909B4B994502D39A4B99453AD3BB69BA
:1066A000002B44D0786A11F0F6F900283FD09648C4
:1066B000036813F0060F13D0E9468AB06A46934B7D
:1066C00053617B6AC2E906314FF400731384904B27
:1066D00042F8103F00234FF4125100F097FDCD46D1
:1066E000023DCEE716F8013BF96254F82300FBF7B0
:1066F00063FED7F884300130F96A4BB1D7F888309F
:1067000098453EBFD7F8843023F8180008F10108F7
:10671000054494E7BB6923B1786A11F0BCF90028FD
:10672000C5D11BF0010F05D1FB6AED1AA9E7BB6AC1
:10673000002BA6D04846FBF73FFED7F8843053B174
:10674000D7F8883098453FBF431CD7F8842022F8FB
:10675000183008F10108054493E7BAF1000F72D030
:106760001BF0040672D0D046002607F148005246BE
:106770003B61B96219F02BF8B96A3B6901EB0A0277
:10678000F969BA62FA695200FA60BA6A02EB410228
:106790003A610BF00202BA603A69B96A8A4257D18B
:1067A0001BF0020F62780CBF4FEA580100217A6299
:1067B0001BF0010F3244D2B240F09F801BF0040F57
:1067C00014BF40460020BB616270A0702046E1709B
:1067D0003A6A7969FB6A9847051EFFF611AFBB69F3
:1067E00041463A6A07F1480023707B6A84F802A0A8
:1067F0006370FB69E370FB6A9847B0F10008C0F270
:10680000BB807B69A9EB0A013A6AC91AFB68C91AFD
:10681000D7E90A0398470028C0F2B080A8444FF097
:10682000000B07F1380A08EB0005B34572D30021CD
:106830003A6AFB6A08469847E2E656464FF0000877
:1068400007F1380093E75646D04697E7B04695E7FC
:10685000BA6A12F8021B12F8015CBA6254F82500F9
:10686000274A904202D3274A90421ED3BA6932B1D6
:10687000786A7B6011F00FF97B6800288CD1BA68C8
:1068800002BB08F1280207F1300C08F1010008F101
:106890000208944407F158025FFA88F852FA80F02F
:1068A0000CF8101C00F8105C76E7BA693AB1786A07
:1068B0007B6011F0F0F87B6800287FF46DAF1BF06F
:1068C000010F09D006F1280207F13000711C1618DB
:1068D00006F8205CCEB25FE71BF0040F3FF45CAF1C
:1068E00008F1280207F1300008F1010102EB00086D
:1068F00008F8105C5FFA81F84EE7002063E700BFFC
:10690000F0FC0160706F0260C00929204540026000
:10691000040000011BF80A3054F8239087F8373040
:10692000D7F884302BB3D7F888309B4521D2D7F8DD
:10693000843033F81B803A6A012107F13700FB6A83
:10694000984700281ADB0544B8F1000F06D14846E5
:10695000FBF732FD00F101081FFA88F83A6A414658
:106960004846FB6A9847002808DB05440BF1010BF9
:106970005BE74FF00008DEE7454641E605463FE6A7
:10698000014B1860704700BF4003292080B50546C1
:106990000E46174698460DF0BBFCDFF820900346E4
:1069A00019F09CF90446424649F800303946304611
:1069B000A84754F8090003F00FFC00BF08000000CE
:1069C00038B503F03DFE03F00DFE3A4B3A4A1A602B
:1069D0004FF40042394B1A60394B9A6922F4405205
:1069E00042F480529A615A6942F000725A619A6C7C
:1069F0009006FCD4334AD36823F01F0343F01303FB
:106A0000D3601368002BFCDA2F480BF029F82C4BCD
:106A10001A6922F0070242F001021A619A6CD1034E
:106A2000FCD45A6922F4E0525A61254B9A6C9207C1
:106A3000FCD45A69224C42F440725A619A6942F479
:106A400040229A615A6922F000725A61A56C15F0D1
:106A50002005FBD1636A28461C4923F0400363628A
:106A6000636A23F03F0363620BF03EF81749284640
:106A70000AF0CEFF182128460BF05EF9636A23F472
:106A8000605343F400636362E36943F48033E3617A
:106A90000B4B03F1800252E8002F42F00C0203F18D
:106AA000800040E800210029F3D15A6D22F0030252
:106AB0005A6538BD4C26292000366E01482629200B
:106AC00000C00F4000000840180A026000389C1CFB
:106AD00008B50BF0FDFA044B044A5A641A6C42F0F4
:106AE00004021A6408BD00BF00C00A4055FAAF5541
:106AF0002DE9F047044607464FF00109DFF85080C2
:106B000014B93846BDE8F08794FAA4F5B5FA85F5CE
:106B100009FA05F32E0108EB05156FEA030A24EACA
:106B200003042B7B002BEBD058F806301B694BB9C4
:106B300046440422284607EA0A077368196800F0E9
:106B400025FBDDE7284698470028D9D1F0E700BFAC
:106B50001C05026030B5002289B00F490F4818F0BB
:106B6000A1FC0022002300240D4D0E49284600946C
:106B7000CDE906230E234FF45072CDE90334CDE95D
:106B80000144094B0DF09CF8084928460CF0C4FF5D
:106B9000204609B030BD00BFB16B00603013292022
:106BA000300E2920803A2920D16E00600F4102600A
:106BB00001480CF06FBD00BF200B29202DE9F047E4
:106BC00080461E480F4611F0B3FA064678B30025FA
:106BD0002846BDE8F087237B6BB12368DB680BB1E7
:106BE0002046984723681B69CBB963680422204676
:106BF000196800F0CBFA013610344C45EBD3B8F1EC
:106C0000000FE5D0002DE2D02846FFF771FF0546C2
:106C1000002FF7D0002164200DF05EFBF2E7204644
:106C200098470028E1D00AFA06F31D43E3E7044C35
:106C30000546DFF810904FF0010ADEE7081F292013
:106C40001C0502602C05026008B5034608462BB1FE
:106C5000044A136000F07EFD002008BD6FF01500AF
:106C6000FBE700BF4403292010B5044C237813B977
:106C700003480CF00FFD0123237010BD8838292034
:106C8000200B292010B504460B4811F051FA5CB1D5
:106C90000A4BBFF35B8F53E8001F013943E8001232
:106CA000002AF8D1BFF35B8F054818F007FC0548B0
:106CB000BDE810400CF0EEBC001F2920041F292065
:106CC00030132920200B29200020064BBFF35B8FB7
:106CD000014653E8000F43E80012002AF9D1BFF340
:106CE0005B8F7047001F292070B5FFF7EDFF084C40
:106CF0000546084EB44200D370BD63685B792BB182
:106D000023685B6813B12946204698471034F1E7A1
:106D10001C0502602C05026010B5044C0449204695
:106D200010F0E7FF034B1C6010BD00BF7C09292059
:106D30004C0A0260F81E292008B5094A00234FF4C6
:106D40007A7108481370084A1360084A1360FFF705
:106D50007BFFFFF7E1FFBDE8084000F067B900BF27
:106D6000893829204B810160001F2920041F292018
:106D7000014600220023014810F0DCBF7C092920D5
:106D8000014811F072B800BF7C092920024B01466E
:106D9000186811F0BEB800BFF81E2920014811F094
:106DA000F3B800BF7C092920324B2DE9F041187857
:106DB00000285DD0FFF7E4FF044698B12E4BBFF3E7
:106DC0005B8F53E8001F013943E80012002AF8D115
:106DD0002A4DBFF35B8FDFF8B080454526D32046B0
:106DE000FFF7D4FF264B274C1B68002B12DD18F051
:106DF00012FB0A220023FBF7B3FAD4E90032C01ACF
:106E000040F2E93361EB0201984271F1000101D3D4
:106E1000FFF76AFFD4E9003213F57A7342F10002FA
:106E2000C4E90032BDE8F041FFF7B8BF6B685B7999
:106E30003BB121784B0706D52B68214628461B68B5
:106E400098471035C9E726882046C1F3C20700F0ED
:106E5000BDFAC6F382160246002EEDD00028EBDB09
:106E600001233946284600F0ABF9B042E9D3E3E705
:106E7000BDE8F08188382920041F29201C05026004
:106E8000001F2920281329202C05026070B50D4D04
:106E9000297861B90C4C01200C4EFFF78FFEB442EB
:106EA00006D3FFF781FF0028FBD101232B7070BDB3
:106EB00063685B791BB1236820469B689847103450
:106EC000EDE700BF893829201C0502602C0502600F
:106ED00000212DE9F0470846FFF770FE044658B33D
:106EE0004FF4FA784FF000091C4B18F0F7FE1C4ADB
:106EF0001B58136033B11B4B1B68092B02DD1A486A
:106F00000CF0C8FB0025194FDFF85CA044B1204607
:106F1000FFF7EEFD044618B94FF0FF384FF0FF3988
:106F2000FFF742FF064628B9B5B942464B465046E0
:106F30000CF0E6FB3546E9E74FF0FF384FF0FF393C
:106F4000D2E72B689B691BB100222846114698475F
:106F50001035BD42F5D3E8E7054DFAE7080000001B
:106F6000FC1E2920041F2920200B29202C0502604B
:106F70001C05026013B5184811F0DAF8174B1B789E
:106F800073B1EFF31184102383F31288BFF36F8F73
:106F9000FFF70AFF84F31188BFF36F8F02B010BDB3
:106FA0000F4B1B68002BF9D050B9002200230D486D
:106FB000CDE9002342F2107200230DF06BFCEDE7E7
:106FC0000928EBD1074818F079FA074802B0BDE864
:106FD00010400CF05FBB00BF041F29208938292016
:106FE000FC1E292030132920200B2920064B10B528
:106FF00004461B6898472146A060044810F016FF1D
:10700000BDE81040FFF7B6BF440329207C092920C2
:10701000044A054B9B1AB1EBD30F34BF52F8310031
:1070200000207047140402601C0502600B48002118
:107030000B4B1B1A043030B5DB080A4C994200D1C7
:1070400030BD10F831200131256802F0070225F02B
:1070500007052A4344F8042BF0E700BF140402603C
:107060001C050260C0092920F8B50B4F06460B4DE0
:107070000024ED1BED08AC4203D14FF0FF34204655
:10708000F8BD57F8340020B13146FBF783F90028EA
:10709000F5D00134EFE700BF140402601C05026064
:1070A00000282DE9F047884615461F461DDADFF80F
:1070B000A8904FF0000A244E5446A6EB0906360964
:1070C000B24509F1100902D12046BDE8F08759F810
:1070D0000C0C3B462A46414600790AF1010AFFF7AB
:1070E000DFFF844238BF0446EAE7184B184AD21A39
:1070F000B5EBD20F25D203EBC5031C79BC4228BFE8
:107100003C46C0B20722134E002100EB400056F867
:107110002530824023EA020304F007028240134331
:10712000032223FA02F0033200F00700814238BF45
:1071300001461E2AF5D123F007030B4346F82530FC
:10714000C2E70024DDE700BF2C05026014040260E2
:107150001C050260C00929201C050260F8B5094D14
:107160000646094B0F460024ED1AED08AC4200D349
:10717000F8BD22B201343B4600213046A4B210F0E3
:10718000FFFFF3E71C0502601404026038B50B4BE7
:107190000D4611464268C31A04461B110133137190
:1071A00043689971FFF7DAFF636801221D60636825
:1071B0005A71BDE83840FFF757BD00BF1C0502609B
:1071C00070B14168097973B1002A17DBCBB20C4961
:1071D00003EB430351F82200D84000F0070070474A
:1071E0004FF0FF31EFE707490748401AB2EBD00FE5
:1071F0003ABF01EBC2010879184670470420704776
:10720000C0092920140402601C0502602DE9F04F1A
:107210008FB0C1F34A280D46914604AF0C0DB860FB
:107220007B60B8F1000F67D0002607F114034FF020
:10723000040B4FF00A0AC7F80C8032467E624846BB
:10724000C7E90766019307F11C03CDF808B0CDF834
:1072500000A0F968FFF7AAF9B0F5006F034620D344
:107260002A48036813F0060F17D06C468AB0D9F885
:10727000041004AB264D1A46C3E9055140F2FF71D4
:10728000D9614FF400711984224B42F8103F4FF43A
:1072900012513346FFF7BAFFA5462C37BD46BDE86D
:1072A000F08FC0F30A0804F117003B60184468F33C
:1072B000532520F007008008FFF75AFD044690B1DF
:1072C0003B6800F11001144A4846F961C7E90836E5
:1072D00007F11403CDF808B0CDE900A307F11C03B2
:1072E000F968FFF763F968F353257B68B9682046AE
:1072F0002A4610F06FFFD0E704F1170020F00700D6
:107300008008FFF735FD0446EDE700BFD4092920CA
:107310002441026004000001A98101602DE9F04FC1
:1073200087B00446934698460391DDE91279DDE97A
:10733000105ADFB13B46524610210020CDF8009094
:10734000CDF81490FEF760FFB0F5006F06460ED33F
:107350001C48036813F0060F30D040F2FF731A4A3E
:10736000022107B0BDE8F04F10F08DBF3E4604F09B
:10737000070405F117000BF0070BE400304444EA62
:107380008B1420F0070044EA4624800844EA0554A0
:10739000FFF7EEFC054640B13FB13B465246314651
:1073A0001030CDF80090FEF72FFF43462246039998
:1073B000284607B0BDE8F04F10F00CBF07B0BDE89D
:1073C000F08F00BFD409292063410260406820B1DA
:1073D000034BC01A40F38F0070474FF0FF307047E7
:1073E000C00929200EB403B503AB0146054853F884
:1073F000042B019303F0F6FA02B05DF804EB03B03E
:10740000704700BFE9820160CA0605D48B064CBFF5
:1074100002490349FFF7E6BF704700BF7B450260A2
:107420009B4102602DE9F04F8BB09B4604460D4610
:10743000169B90469DF854A00693179B199E0593A2
:10744000189B0493BAF1000F00F09E8006F0010330
:1074500006F00209089306F00803079306F4807308
:10746000099310F08BFE024600283BD08F4920463E
:10747000FFF7B8FF0746B9F1000F08D016F0440F28
:1074800032D12A468A492046FFF7ACFF0744089BC1
:1074900053B1884B2046884953F82A20874B002A4D
:1074A00008BF1A46FFF79EFF099B002B48D0079B99
:1074B000002B62D1B8F1000F64D0424680492046CB
:1074C000FFF790FF0546069B3D44002B6BD1049BC4
:1074D000002B71D1F30700F1E28031462046FFF71F
:1074E00093FFD6E00746C6E7764B18680028CDD054
:1074F000754B4FF47A794FF461614FF03C0C1B6887
:10750000B5FBF3F5B5FBF0F300FB135509FB05F5EF
:10751000B3FBF1F2B5FBF0FE01FB123100FB1E558F
:10752000B1FBFCF309FB05F50CFB1311B5FBF0F502
:10753000009120466549CDE901E5FFF753FFA5E736
:10754000079BEBB1624B2046624953F82A20FFF7B4
:1075500049FF0546B8F1000F05D04246584920467C
:10756000FFF740FF0544BBF1000FACD05A465A4923
:107570002046FFF737FF0544A5E74FF0000BE1E792
:10758000079DE7E745469EE7BBF1010F069B06D145
:10759000002B64D1049B002B7BD000250CE0002B3A
:1075A000F8D04E485CE04E48069B22464D4910F00C
:1075B00041FA049B002B68D0DFF83881DFF838915E
:1075C000049F4FF0000B31462046102F28BF102794
:1075D000FFF71AFF5D4545DC059B4FF0010B49465F
:1075E00020461A78FFF7FEFE1BF0070F03D1414635
:1075F0002046FFF7F7FE5F453BD9059B49462046ED
:1076000013F80B20FFF7EEFE0BF1010BBBF1100F8F
:10761000EAD14FF0000B34492046FFF7E3FE5A460B
:10762000059B20469A5CA2F120015F292F4928BFC3
:107630002E22FFF7D7FE0BF1010BBBF1100F1DD06F
:107640001BF0070F03D141462046FFF7CBFE5F45F5
:107650005A46E5D841462046FFF7C4FEEBE72048EE
:107660005546A1E7414620460BF1010BFFF7BAFE54
:10767000B0E71F492046FFF7B5FEC5E7059B3B4431
:107680000593049BDB1B04939AD1BAF1000F7FF49E
:1076900021AF20460BB0BDE8F04F10F018BE074AEE
:1076A00020460549FFF79EFE17E700BFA341026091
:1076B000A7410260600A02605F4602609E4102606C
:1076C000CC410260101F29200C1F2920B04102600C
:1076D000740A0260D0410260F83802601F830160C2
:1076E000E9820160E5A90060DC410260674C02604C
:1076F000026D0260046D0260D641026042F20F73B7
:10770000114A8B4273B5044628BF0B460568052114
:1077100068460DF09DF9636806460B2228465B68B3
:107720000A4910F0C6FD63683246694628465B6820
:1077300010F0BFFD63681B2205495B68284610F006
:10774000B8FD02B070BD00BF61610260FA41026025
:10775000DE41026000210123064A904206D8064A13
:1077600001B901231360054B1860704740080121DF
:107770005B00F2E740420F000C1F2920101F292058
:10778000014B036000207047880A02602DE9F8432E
:107790000646FAF711FE0546EFF31188102383F32E
:1077A0001288BFF36F8F114B1C68D3F804909C4272
:1077B00008BF002434B988F31188BFF36F8F2046C7
:1077C000BDE8F883A7683846FAF7F6FDA84206D167
:1077D0002A463946304618F04EF80028EBD04C4582
:1077E00001D02468E6E70024E5E700BF480329202C
:1077F0002DE9F0410E461546FFF7C8FF044640B399
:10780000C36833B31F6927B3062E07D0072E23D0D2
:107810002A4631463B46BDE8F0411847838A3BB9CA
:107820002A463146B84750B9A38A0133A38206E0FD
:107830004FF6FF72934204D00133A3820020BDE8CB
:10784000F081164803685B0703D0154A012110F048
:1078500011FD6FF01500F2E745B12A7832B1002230
:10786000314682822A461B699847E7E7A38A012BA3
:1078700008D12A4607212046B8470028DFD1A38A2D
:10788000013BD3E70BB1013BD7E70448036813F092
:10789000060FDED0034A0221D9E700BFC80929201C
:1078A000264202604842026010B5044608B1806872
:1078B00050B9134803685A0703D0124A012110F047
:1078C000D9FC6FF0150010BDFFF760FF28B10C4820
:1078D00003685B07F5D00C4AF0E7A082EFF3118153
:1078E000102383F31288BFF36F8F084B5A68C4E9E3
:1078F000003214605C6081F31188BFF36F8FE2E7A0
:10790000C8092920664202607F420260480329209C
:1079100010B5044608F0C8F903490246204610F0A5
:1079200032FF002010BD00BFBF42026037B51346D2
:10793000002205460A21019201AA586801F0D4FBF1
:10794000019C4CB920EAE0700A2180FB01010CF097
:10795000C3FC204603B030BD22460349284610F040
:107960002EFF019CF5E700BFEB420260034A044989
:1079700008B510F008FF002008BD00BFD843026022
:10798000DE4302602DE9F34117460023044601AAB5
:107990000A21B868019301F0A7FB019DC6B24DB161
:1079A0002A461449204610F00AFF019D284602B0DD
:1079B000BDE8F081042E09D932460F492046012541
:1079C00010F0FDFE204610F035FFEFE77868FFF776
:1079D0004BFBB0F1000804DA7A682046074910F042
:1079E000EEFE002133460FFA88F2084610F0C8FB7D
:1079F000DCE700BF01440260284402603F440260AB
:107A000010B5044608F032F907490246204610F046
:107A1000BAFE2046054910F0B6FE214604480CF097
:107A200033FD002010BD00BF9E440260BD440260D3
:107A3000357A006070B58EB004460D46D0F89C6073
:107A400017F0A4FB224A034618F048F91058214ABF
:107A50002149002B18BF1A46234600921F4A844230
:107A600018BF0A4628461E4910F08DFE28461D49BB
:107A7000D4E90A23CDE9002394F90E30227B10F0DB
:107A800082FE06A9202220460CF056F8636E0246BC
